{
  "transactions": [
    {
      "hash": "0x853fc192c677a78963627fcded7c3571e63abe5ccf3a086e6d82a10fd70be101",
      "transactionType": "CALL",
      "contractName": null,
      "contractAddress": "0x10e39e8e313e0cc244ce7fa9cdbafcf412a44d88",
      "function": "proposeInitRegistry(string,address,address)",
      "arguments": [
        "@coinbase",
        "0xaB2a6DD8458fa312b81bc5a19311CA1F2bE2aDfe",
        "0xf5da998629C5760CC831329B1C469b2368fE8Ff6"
      ],
      "transaction": {
        "from": "0x708657da3e4effa7334779c9a1e759dc38a5bf94",
        "to": "0x10e39e8e313e0cc244ce7fa9cdbafcf412a44d88",
        "gas": "0x6ad5a",
        "value": "0x0",
        "input": "0x95d214710000000000000000000000000000000000000000000000000000000000000060000000000000000000000000ab2a6dd8458fa312b81bc5a19311ca1f2be2adfe000000000000000000000000f5da998629c5760cc831329b1c469b2368fe8ff6000000000000000000000000000000000000000000000000000000000000000940636f696e626173650000000000000000000000000000000000000000000000",
        "nonce": "0x6c",
        "chainId": "0x2105"
      },
      "additionalContracts": [
        {
          "transactionType": "CREATE",
          "contractName": null,
          "address": "0x8b4e6736e573e1e31e02bb4f0276b29ad44e56da",
          "initCode": "0x3d602d80600a3d3981f3363d3d373d3d3d363d734096b3447a0385dff7384666f27cc7c5749e8f965af43d82803e903d91602b57fd5bf3"
        }
      ],
      "isFixedGasLimit": false
    },
    {
      "hash": "0x2f65db55ec061cb6533f7aa284323c5868e137b48689c3e89f402ab296cbc2df",
      "transactionType": "CALL",
      "contractName": null,
      "contractAddress": "0x10e39e8e313e0cc244ce7fa9cdbafcf412a44d88",
      "function": "validateRegistryInit(address)",
      "arguments": [
        "0x8B4e6736e573e1E31e02BB4f0276B29aD44E56da"
      ],
      "transaction": {
        "from": "0x708657da3e4effa7334779c9a1e759dc38a5bf94",
        "to": "0x10e39e8e313e0cc244ce7fa9cdbafcf412a44d88",
        "gas": "0x242e4",
        "value": "0x0",
        "input": "0x0bec77cb0000000000000000000000008b4e6736e573e1e31e02bb4f0276b29ad44e56da",
        "nonce": "0x6d",
        "chainId": "0x2105"
      },
      "additionalContracts": [],
      "isFixedGasLimit": false
    },
    {
      "hash": "0xc2b50ae60e3c6b19b1ec7215a1a0c561fbc4d84dc4fc29678a46326e5e28cb5b",
      "transactionType": "CALL",
      "contractName": null,
      "contractAddress": "0x10e39e8e313e0cc244ce7fa9cdbafcf412a44d88",
      "function": "executeInitRegistry(address)",
      "arguments": [
        "0x8B4e6736e573e1E31e02BB4f0276B29aD44E56da"
      ],
      "transaction": {
        "from": "0x708657da3e4effa7334779c9a1e759dc38a5bf94",
        "to": "0x10e39e8e313e0cc244ce7fa9cdbafcf412a44d88",
        "gas": "0x234e1",
        "value": "0x0",
        "input": "0xfe468e8d0000000000000000000000008b4e6736e573e1e31e02bb4f0276b29ad44e56da",
        "nonce": "0x6e",
        "chainId": "0x2105"
      },
      "additionalContracts": [],
      "isFixedGasLimit": false
    }
  ],
  "receipts": [
    {
      "status": "0x1",
      "cumulativeGasUsed": "0x23e0e88",
      "logs": [
        {
          "address": "0x10e39e8e313e0cc244ce7fa9cdbafcf412a44d88",
          "topics": [
            "0x4ce0c27545d07e48809f1aa0a84ddfa362a8564250684bc7a9f28d33d00a2d48",
            "0x0000000000000000000000008b4e6736e573e1e31e02bb4f0276b29ad44e56da"
          ],
          "data": "0x00000000000000000000000000000000000000000000000000000000000000400000000000000000000000000000000000000000000000000000000000000001000000000000000000000000000000000000000000000000000000000000000940636f696e626173650000000000000000000000000000000000000000000000",
          "blockHash": "0x0000000000000000000000000000000000000000000000000000000000000000",
          "blockNumber": "0x2b24fe9",
          "blockTimestamp": "0x69eefcb5",
          "transactionHash": "0x853fc192c677a78963627fcded7c3571e63abe5ccf3a086e6d82a10fd70be101",
          "transactionIndex": "0xb4",
          "logIndex": "0x26c",
          "removed": false
        }
      ],
      "logsBloom": "0x00000000000000000000000000000000000000000000000000000000000000000000000000000000000000000000000000000000000000000000000000000000000000000000000000000000020000000000020000000000000000000000000000000000004000000000000000000000000000200000000000000000000000000000000000000000000000000000000000000000000000000000000000000000000000000000000000000000000000000000000000000000000204000000000001000000000000000000000000000000000000000000020000000000000000000000000000000000000000000000000000000000000000000000000000010000",
      "type": "0x2",
      "transactionHash": "0x853fc192c677a78963627fcded7c3571e63abe5ccf3a086e6d82a10fd70be101",
      "transactionIndex": "0xb4",
      "blockHash": "0x0000000000000000000000000000000000000000000000000000000000000000",
      "blockNumber": "0x2b24fe9",
      "gasUsed": "0x490ca",
      "effectiveGasPrice": "0x4dd1e0",
      "blobGasUsed": "0x4688",
      "from": "0x708657da3e4effa7334779c9a1e759dc38a5bf94",
      "to": "0x10e39e8e313e0cc244ce7fa9cdbafcf412a44d88",
      "contractAddress": null,
      "daFootprintGasScalar": "0x94",
      "l1BaseFeeScalar": "0x8dd",
      "l1BlobBaseFee": "0x200f129",
      "l1BlobBaseFeeScalar": "0x101c12",
      "l1Fee": "0x3f9b80c52",
      "l1GasPrice": "0x260189e0",
      "l1GasUsed": "0x7a3"
    },
    {
      "status": "0x1",
      "cumulativeGasUsed": "0x23f9a5b",
      "logs": [
        {
          "address": "0x10e39e8e313e0cc244ce7fa9cdbafcf412a44d88",
          "topics": [
            "0x8afcfe623786b65eb4a2533716b5939ce637e899461e55ebfa3f10beab6b3639",
            "0x000000000000000000000000708657da3e4effa7334779c9a1e759dc38a5bf94"
          ],
          "data": "0x00000000000000000000000000000000000000000000000000000000000000010000000000000000000000000000000000000000000000000000000000000000",
          "blockHash": "0x0000000000000000000000000000000000000000000000000000000000000000",
          "blockNumber": "0x2b24fe9",
          "blockTimestamp": "0x69eefcb5",
          "transactionHash": "0xc2b50ae60e3c6b19b1ec7215a1a0c561fbc4d84dc4fc29678a46326e5e28cb5b",
          "transactionIndex": "0xb5",
          "logIndex": "0x26d",
          "removed": false
        }
      ],
      "logsBloom": "0x00000000000000000000000004000000000000000000000000000000000000000000000000000000000000000000000000000000000000000000000000000000000000000000000000000000000000000000020000000000000000400100000000000000000000000000000000000000000000280000000000000000000000000000000000000000000000000000000000000000000000000000000000000001000000000000000000000000000000000000000000000000000000000000000000000000000000000000000000000000000000000000000000000000000000000000000000000000000000000000000000000000040000000000000000010000",
      "type": "0x2",
      "transactionHash": "0xc2b50ae60e3c6b19b1ec7215a1a0c561fbc4d84dc4fc29678a46326e5e28cb5b",
      "transactionIndex": "0xb5",
      "blockHash": "0x0000000000000000000000000000000000000000000000000000000000000000",
      "blockNumber": "0x2b24fe9",
      "gasUsed": "0x18bd3",
      "effectiveGasPrice": "0x4dd1e0",
      "blobGasUsed": "0x39d0",
      "from": "0x708657da3e4effa7334779c9a1e759dc38a5bf94",
      "to": "0x10e39e8e313e0cc244ce7fa9cdbafcf412a44d88",
      "contractAddress": null,
      "daFootprintGasScalar": "0x94",
      "l1BaseFeeScalar": "0x8dd",
      "l1BlobBaseFee": "0x200f129",
      "l1BlobBaseFeeScalar": "0x101c12",
      "l1Fee": "0x3f9b80c52",
      "l1GasPrice": "0x260189e0",
      "l1GasUsed": "0x640"
    },
    {
      "status": "0x1",
      "cumulativeGasUsed": "0x2413352",
      "logs": [
        {
          "address": "0x10e39e8e313e0cc244ce7fa9cdbafcf412a44d88",
          "topics": [
            "0x43dcf2166be267d8f6dc31580b9b1a605fddb5259a48dddd50b0348ac38fb24e",
            "0x0000000000000000000000008b4e6736e573e1e31e02bb4f0276b29ad44e56da"
          ],
          "data": "0x",
          "blockHash": "0x0000000000000000000000000000000000000000000000000000000000000000",
          "blockNumber": "0x2b24fe9",
          "blockTimestamp": "0x69eefcb5",
          "transactionHash": "0x2f65db55ec061cb6533f7aa284323c5868e137b48689c3e89f402ab296cbc2df",
          "transactionIndex": "0xb6",
          "logIndex": "0x26e",
          "removed": false
        }
      ],
      "logsBloom": "0x00000000000000004000000000000000000000000000000000000000000000000000000000000000000000000000000000000000000000000000200000000000000000000000000000000000000000000000020000000000000000000000000000000000004000000000000000000000000000200000000000000000000000000000000000000000000000000000000000000000000000000000000000000000000000000000000000000000000000000000000000000000000004000000000000010000000000000000000000000000000000000000020000000000000000000000000000000000000000000000000000000000000000000000000000010000",
      "type": "0x2",
      "transactionHash": "0x2f65db55ec061cb6533f7aa284323c5868e137b48689c3e89f402ab296cbc2df",
      "transactionIndex": "0xb6",
      "blockHash": "0x0000000000000000000000000000000000000000000000000000000000000000",
      "blockNumber": "0x2b24fe9",
      "gasUsed": "0x198f7",
      "effectiveGasPrice": "0x4dd1e0",
      "blobGasUsed": "0x39d0",
      "from": "0x708657da3e4effa7334779c9a1e759dc38a5bf94",
      "to": "0x10e39e8e313e0cc244ce7fa9cdbafcf412a44d88",
      "contractAddress": null,
      "daFootprintGasScalar": "0x94",
      "l1BaseFeeScalar": "0x8dd",
      "l1BlobBaseFee": "0x200f129",
      "l1BlobBaseFeeScalar": "0x101c12",
      "l1Fee": "0x3f9b80c52",
      "l1GasPrice": "0x260189e0",
      "l1GasUsed": "0x640"
    }
  ],
  "libraries": [],
  "pending": [],
  "returns": {},
  "timestamp": 1777269940862,
  "chain": 8453,
  "commit": "2075ee4"
}