{
  "transactions": [
    {
      "hash": "0x2a0b8e2933826c647f9cb3fd4e640b53db6d067b71e25ed2c2e2c6b778da9071",
      "transactionType": "CALL",
      "contractName": null,
      "contractAddress": "0xd2611e3ace93303052478af5ee5d13e2e9c63c7a",
      "function": "proposeValidatorUpdate(address,bool)",
      "arguments": [
        "0x8d7050a29C112638F0c9E0F103F3C498C2Bd948b",
        "true"
      ],
      "transaction": {
        "from": "0x708657da3e4effa7334779c9a1e759dc38a5bf94",
        "to": "0xd2611e3ace93303052478af5ee5d13e2e9c63c7a",
        "gas": "0x24f73",
        "value": "0x0",
        "input": "0x587605e90000000000000000000000008d7050a29c112638f0c9e0f103f3c498c2bd948b0000000000000000000000000000000000000000000000000000000000000001",
        "nonce": "0x82",
        "chainId": "0x2105"
      },
      "additionalContracts": [],
      "isFixedGasLimit": false
    },
    {
      "hash": "0x39db42d0b4e6b25b85ff40949968748eef86a41cce1ec08848bf7e40c7e21b91",
      "transactionType": "CALL",
      "contractName": null,
      "contractAddress": "0xd2611e3ace93303052478af5ee5d13e2e9c63c7a",
      "function": "validateValidatorUpdate(address)",
      "arguments": [
        "0x8d7050a29C112638F0c9E0F103F3C498C2Bd948b"
      ],
      "transaction": {
        "from": "0x708657da3e4effa7334779c9a1e759dc38a5bf94",
        "to": "0xd2611e3ace93303052478af5ee5d13e2e9c63c7a",
        "gas": "0x2309a",
        "value": "0x0",
        "input": "0x8ea1865e0000000000000000000000008d7050a29c112638f0c9e0f103f3c498c2bd948b",
        "nonce": "0x83",
        "chainId": "0x2105"
      },
      "additionalContracts": [],
      "isFixedGasLimit": false
    },
    {
      "hash": "0xa6b6fd82d5d6f493d3f2b61e0919ac7bbe79475bfb26b1db022bdf143bdbdb24",
      "transactionType": "CALL",
      "contractName": null,
      "contractAddress": "0xd2611e3ace93303052478af5ee5d13e2e9c63c7a",
      "function": "executeValidatorUpdate(address)",
      "arguments": [
        "0x8d7050a29C112638F0c9E0F103F3C498C2Bd948b"
      ],
      "transaction": {
        "from": "0x708657da3e4effa7334779c9a1e759dc38a5bf94",
        "to": "0xd2611e3ace93303052478af5ee5d13e2e9c63c7a",
        "gas": "0x17c82",
        "value": "0x0",
        "input": "0x3d027cb00000000000000000000000008d7050a29c112638f0c9e0f103f3c498c2bd948b",
        "nonce": "0x84",
        "chainId": "0x2105"
      },
      "additionalContracts": [],
      "isFixedGasLimit": false
    },
    {
      "hash": "0xf9e786e92026db3785fb06673e4ccf22da9a42b9aac632796adcf994017f5ea8",
      "transactionType": "CALL",
      "contractName": null,
      "contractAddress": "0xd2611e3ace93303052478af5ee5d13e2e9c63c7a",
      "function": "updateRecovery(address,bool)",
      "arguments": [
        "0x8d7050a29C112638F0c9E0F103F3C498C2Bd948b",
        "true"
      ],
      "transaction": {
        "from": "0x708657da3e4effa7334779c9a1e759dc38a5bf94",
        "to": "0xd2611e3ace93303052478af5ee5d13e2e9c63c7a",
        "gas": "0x11834",
        "value": "0x0",
        "input": "0xbb3b41f60000000000000000000000008d7050a29c112638f0c9e0f103f3c498c2bd948b0000000000000000000000000000000000000000000000000000000000000001",
        "nonce": "0x85",
        "chainId": "0x2105"
      },
      "additionalContracts": [],
      "isFixedGasLimit": false
    }
  ],
  "receipts": [
    {
      "status": "0x1",
      "cumulativeGasUsed": "0x170be99",
      "logs": [
        {
          "address": "0xd2611e3ace93303052478af5ee5d13e2e9c63c7a",
          "topics": [
            "0xf122f274276033cf46a71048adad4a34b6d2facd363320eeca1a7ed6d2ee7bb1",
            "0x0000000000000000000000008d7050a29c112638f0c9e0f103f3c498c2bd948b"
          ],
          "data": "0x0000000000000000000000000000000000000000000000000000000000000001",
          "blockHash": "0x0000000000000000000000000000000000000000000000000000000000000000",
          "blockNumber": "0x2b2d39c",
          "blockTimestamp": "0x69f0041b",
          "transactionHash": "0xa6b6fd82d5d6f493d3f2b61e0919ac7bbe79475bfb26b1db022bdf143bdbdb24",
          "transactionIndex": "0x61",
          "logIndex": "0x273",
          "removed": false
        }
      ],
      "logsBloom": "0x00000000000000000000000000000080000000000000000000000000000000000000000000000000000000000000000000000000000000000000000000000000000000000000000000000000000000000000000000000000000000000000000000000000000400000000000000000020000000000000000000000000000000000000000000000000000000000000000000000000000000000000000000000000000000000000000010000000000000000000000000000000000000000000000000000000000000200000000100000000000000004000000000000000000040000000080000000000000000000000000000000000000000000000000000000000",
      "type": "0x2",
      "transactionHash": "0xa6b6fd82d5d6f493d3f2b61e0919ac7bbe79475bfb26b1db022bdf143bdbdb24",
      "transactionIndex": "0x61",
      "blockHash": "0x0000000000000000000000000000000000000000000000000000000000000000",
      "blockNumber": "0x2b2d39c",
      "gasUsed": "0x19469",
      "effectiveGasPrice": "0x511182",
      "blobGasUsed": "0x39d0",
      "from": "0x708657da3e4effa7334779c9a1e759dc38a5bf94",
      "to": "0xd2611e3ace93303052478af5ee5d13e2e9c63c7a",
      "contractAddress": null,
      "daFootprintGasScalar": "0x94",
      "l1BaseFeeScalar": "0x8dd",
      "l1BlobBaseFee": "0x1865e18",
      "l1BlobBaseFeeScalar": "0x101c12",
      "l1Fee": "0x10245f515",
      "l1GasPrice": "0x1acbf846",
      "l1GasUsed": "0x640"
    },
    {
      "status": "0x1",
      "cumulativeGasUsed": "0x1725478",
      "logs": [
        {
          "address": "0xd2611e3ace93303052478af5ee5d13e2e9c63c7a",
          "topics": [
            "0xea15854380d5cd735f80fcf00ac275602d4b858845d77a40964e36df40f6961a",
            "0x000000000000000000000000708657da3e4effa7334779c9a1e759dc38a5bf94"
          ],
          "data": "0x000000000000000000000000000000000000000000000000000000000000000100000000000000000000000000000000000000000000000000000000000000010000000000000000000000000000000000000000000000000000000000000000",
          "blockHash": "0x0000000000000000000000000000000000000000000000000000000000000000",
          "blockNumber": "0x2b2d39c",
          "blockTimestamp": "0x69f0041b",
          "transactionHash": "0x39db42d0b4e6b25b85ff40949968748eef86a41cce1ec08848bf7e40c7e21b91",
          "transactionIndex": "0x62",
          "logIndex": "0x274",
          "removed": false
        }
      ],
      "logsBloom": "0x00000000000000000000000004000000000000000000000000000000000000000000000000000000000000000000000000000000000000000000000000000000000000000000000000000000000000000000000000000000000000000000000000000000000400000000000000000020000000080000000000000000000000040000000000000000000000000000000000000000000000000000000000008001000000000000000000000080000000000000000000000000000000000000000000000000000000000000000000000000000000004000000000000000000000000000000000000000000000000000000000000000000000000000000000000000",
      "type": "0x2",
      "transactionHash": "0x39db42d0b4e6b25b85ff40949968748eef86a41cce1ec08848bf7e40c7e21b91",
      "transactionIndex": "0x62",
      "blockHash": "0x0000000000000000000000000000000000000000000000000000000000000000",
      "blockNumber": "0x2b2d39c",
      "gasUsed": "0x195df",
      "effectiveGasPrice": "0x511182",
      "blobGasUsed": "0x39d0",
      "from": "0x708657da3e4effa7334779c9a1e759dc38a5bf94",
      "to": "0xd2611e3ace93303052478af5ee5d13e2e9c63c7a",
      "contractAddress": null,
      "daFootprintGasScalar": "0x94",
      "l1BaseFeeScalar": "0x8dd",
      "l1BlobBaseFee": "0x1865e18",
      "l1BlobBaseFeeScalar": "0x101c12",
      "l1Fee": "0x10245f515",
      "l1GasPrice": "0x1acbf846",
      "l1GasUsed": "0x640"
    },
    {
      "status": "0x1",
      "cumulativeGasUsed": "0x17367f4",
      "logs": [
        {
          "address": "0xd2611e3ace93303052478af5ee5d13e2e9c63c7a",
          "topics": [
            "0x763b63b30e91c843bb39e4379603697003d3b7c1f192619cd782fa33bdc44396",
            "0x0000000000000000000000008d7050a29c112638f0c9e0f103f3c498c2bd948b"
          ],
          "data": "0x0000000000000000000000000000000000000000000000000000000000000001",
          "blockHash": "0x0000000000000000000000000000000000000000000000000000000000000000",
          "blockNumber": "0x2b2d39c",
          "blockTimestamp": "0x69f0041b",
          "transactionHash": "0x2a0b8e2933826c647f9cb3fd4e640b53db6d067b71e25ed2c2e2c6b778da9071",
          "transactionIndex": "0x63",
          "logIndex": "0x275",
          "removed": false
        }
      ],
      "logsBloom": "0x00000000000000000000000000000000000000000000000000000000000000000000000000000000000000000000000000000000000000000000000000000000000000000000100000000000000000000000000000000000000000000000000000000000000400000000000000000020000000000000000000000000000000000000000000000000000000000000000000000000000000000000000000000000000000000000000010000000000000000000000000000000000000000000000000200000000000000000000100000000000000004000000800000000000000000000080000000000000000000000000000000000000000000000000000000000",
      "type": "0x2",
      "transactionHash": "0x2a0b8e2933826c647f9cb3fd4e640b53db6d067b71e25ed2c2e2c6b778da9071",
      "transactionIndex": "0x63",
      "blockHash": "0x0000000000000000000000000000000000000000000000000000000000000000",
      "blockNumber": "0x2b2d39c",
      "gasUsed": "0x1137c",
      "effectiveGasPrice": "0x511182",
      "blobGasUsed": "0x39d0",
      "from": "0x708657da3e4effa7334779c9a1e759dc38a5bf94",
      "to": "0xd2611e3ace93303052478af5ee5d13e2e9c63c7a",
      "contractAddress": null,
      "daFootprintGasScalar": "0x94",
      "l1BaseFeeScalar": "0x8dd",
      "l1BlobBaseFee": "0x1865e18",
      "l1BlobBaseFeeScalar": "0x101c12",
      "l1Fee": "0x10245f515",
      "l1GasPrice": "0x1acbf846",
      "l1GasUsed": "0x640"
    },
    {
      "status": "0x1",
      "cumulativeGasUsed": "0x17432d2",
      "logs": [],
      "logsBloom": "0x00000000000000000000000000000000000000000000000000000000000000000000000000000000000000000000000000000000000000000000000000000000000000000000000000000000000000000000000000000000000000000000000000000000000000000000000000000000000000000000000000000000000000000000000000000000000000000000000000000000000000000000000000000000000000000000000000000000000000000000000000000000000000000000000000000000000000000000000000000000000000000000000000000000000000000000000000000000000000000000000000000000000000000000000000000000",
      "type": "0x2",
      "transactionHash": "0xf9e786e92026db3785fb06673e4ccf22da9a42b9aac632796adcf994017f5ea8",
      "transactionIndex": "0x64",
      "blockHash": "0x0000000000000000000000000000000000000000000000000000000000000000",
      "blockNumber": "0x2b2d39c",
      "gasUsed": "0xcade",
      "effectiveGasPrice": "0x511182",
      "blobGasUsed": "0x39d0",
      "from": "0x708657da3e4effa7334779c9a1e759dc38a5bf94",
      "to": "0xd2611e3ace93303052478af5ee5d13e2e9c63c7a",
      "contractAddress": null,
      "daFootprintGasScalar": "0x94",
      "l1BaseFeeScalar": "0x8dd",
      "l1BlobBaseFee": "0x1865e18",
      "l1BlobBaseFeeScalar": "0x101c12",
      "l1Fee": "0x10245f515",
      "l1GasPrice": "0x1acbf846",
      "l1GasUsed": "0x640"
    }
  ],
  "libraries": [],
  "pending": [],
  "returns": {},
  "timestamp": 1777337367853,
  "chain": 8453,
  "commit": "2a2c686"
}