{
  "transactions": [
    {
      "hash": "0x989abd65e65619ec0f7b9f2bf79611e39e3f9195a10c449392b82dd250da80af",
      "transactionType": "CALL",
      "contractName": null,
      "contractAddress": "0x10e39e8e313e0cc244ce7fa9cdbafcf412a44d88",
      "function": "proposeInitRegistry(string,address,address)",
      "arguments": [
        "@metamask",
        "0xaB2a6DD8458fa312b81bc5a19311CA1F2bE2aDfe",
        "0xf5da998629C5760CC831329B1C469b2368fE8Ff6"
      ],
      "transaction": {
        "from": "0x708657da3e4effa7334779c9a1e759dc38a5bf94",
        "to": "0x10e39e8e313e0cc244ce7fa9cdbafcf412a44d88",
        "gas": "0x6ad5a",
        "value": "0x0",
        "input": "0x95d214710000000000000000000000000000000000000000000000000000000000000060000000000000000000000000ab2a6dd8458fa312b81bc5a19311ca1f2be2adfe000000000000000000000000f5da998629c5760cc831329b1c469b2368fe8ff60000000000000000000000000000000000000000000000000000000000000009406d6574616d61736b0000000000000000000000000000000000000000000000",
        "nonce": "0x69",
        "chainId": "0x2105"
      },
      "additionalContracts": [
        {
          "transactionType": "CREATE",
          "contractName": null,
          "address": "0x7d959b225b5bb17230eb1810dc40fe18498ee154",
          "initCode": "0x3d602d80600a3d3981f3363d3d373d3d3d363d734096b3447a0385dff7384666f27cc7c5749e8f965af43d82803e903d91602b57fd5bf3"
        }
      ],
      "isFixedGasLimit": false
    },
    {
      "hash": "0x709c74606a27d0879bba0f875dca5863e5e68e31485914c54caecf6b24ac1aef",
      "transactionType": "CALL",
      "contractName": null,
      "contractAddress": "0x10e39e8e313e0cc244ce7fa9cdbafcf412a44d88",
      "function": "validateRegistryInit(address)",
      "arguments": [
        "0x7d959B225b5bB17230eB1810DC40fe18498ee154"
      ],
      "transaction": {
        "from": "0x708657da3e4effa7334779c9a1e759dc38a5bf94",
        "to": "0x10e39e8e313e0cc244ce7fa9cdbafcf412a44d88",
        "gas": "0x242e4",
        "value": "0x0",
        "input": "0x0bec77cb0000000000000000000000007d959b225b5bb17230eb1810dc40fe18498ee154",
        "nonce": "0x6a",
        "chainId": "0x2105"
      },
      "additionalContracts": [],
      "isFixedGasLimit": false
    },
    {
      "hash": "0x4c6aa62906cc9b48e1113b12a79b2b7c95695a9069f402866c789fee4681d2ad",
      "transactionType": "CALL",
      "contractName": null,
      "contractAddress": "0x10e39e8e313e0cc244ce7fa9cdbafcf412a44d88",
      "function": "executeInitRegistry(address)",
      "arguments": [
        "0x7d959B225b5bB17230eB1810DC40fe18498ee154"
      ],
      "transaction": {
        "from": "0x708657da3e4effa7334779c9a1e759dc38a5bf94",
        "to": "0x10e39e8e313e0cc244ce7fa9cdbafcf412a44d88",
        "gas": "0x234e1",
        "value": "0x0",
        "input": "0xfe468e8d0000000000000000000000007d959b225b5bb17230eb1810dc40fe18498ee154",
        "nonce": "0x6b",
        "chainId": "0x2105"
      },
      "additionalContracts": [],
      "isFixedGasLimit": false
    }
  ],
  "receipts": [
    {
      "status": "0x1",
      "cumulativeGasUsed": "0x13a444c",
      "logs": [
        {
          "address": "0x10e39e8e313e0cc244ce7fa9cdbafcf412a44d88",
          "topics": [
            "0x4ce0c27545d07e48809f1aa0a84ddfa362a8564250684bc7a9f28d33d00a2d48",
            "0x0000000000000000000000007d959b225b5bb17230eb1810dc40fe18498ee154"
          ],
          "data": "0x000000000000000000000000000000000000000000000000000000000000004000000000000000000000000000000000000000000000000000000000000000010000000000000000000000000000000000000000000000000000000000000009406d6574616d61736b0000000000000000000000000000000000000000000000",
          "blockHash": "0x0000000000000000000000000000000000000000000000000000000000000000",
          "blockNumber": "0x2b24fa5",
          "blockTimestamp": "0x69eefc2d",
          "transactionHash": "0x989abd65e65619ec0f7b9f2bf79611e39e3f9195a10c449392b82dd250da80af",
          "transactionIndex": "0x6b",
          "logIndex": "0x1c8",
          "removed": false
        }
      ],
      "logsBloom": "0x00000000000000000000000000000000000000000000000000000000000000000000000000000000000000000000000000000200000000000000000000000000000000000000000000000000020000000000020000000000000000000000000000000000000000000000000000000000000000200000000000000000000000000000000000000000000000000000000000000000000000000000000000000000000000000000000000000000000000000000000000000000000200000000000001000000000000000000000000000000000000000000000000000000000000000000000000000000000080000000000200000000000000000000000000010000",
      "type": "0x2",
      "transactionHash": "0x989abd65e65619ec0f7b9f2bf79611e39e3f9195a10c449392b82dd250da80af",
      "transactionIndex": "0x6b",
      "blockHash": "0x0000000000000000000000000000000000000000000000000000000000000000",
      "blockNumber": "0x2b24fa5",
      "gasUsed": "0x490ca",
      "effectiveGasPrice": "0x4dd1e0",
      "blobGasUsed": "0x4688",
      "from": "0x708657da3e4effa7334779c9a1e759dc38a5bf94",
      "to": "0x10e39e8e313e0cc244ce7fa9cdbafcf412a44d88",
      "contractAddress": null,
      "daFootprintGasScalar": "0x94",
      "l1BaseFeeScalar": "0x8dd",
      "l1BlobBaseFee": "0x27aca3c",
      "l1BlobBaseFeeScalar": "0x101c12",
      "l1Fee": "0x1a9ebf7e0",
      "l1GasPrice": "0x2d35b9d6",
      "l1GasUsed": "0x7a3"
    },
    {
      "status": "0x1",
      "cumulativeGasUsed": "0x14259bb",
      "logs": [
        {
          "address": "0x10e39e8e313e0cc244ce7fa9cdbafcf412a44d88",
          "topics": [
            "0x8afcfe623786b65eb4a2533716b5939ce637e899461e55ebfa3f10beab6b3639",
            "0x000000000000000000000000708657da3e4effa7334779c9a1e759dc38a5bf94"
          ],
          "data": "0x00000000000000000000000000000000000000000000000000000000000000010000000000000000000000000000000000000000000000000000000000000000",
          "blockHash": "0x0000000000000000000000000000000000000000000000000000000000000000",
          "blockNumber": "0x2b24fa5",
          "blockTimestamp": "0x69eefc2d",
          "transactionHash": "0x709c74606a27d0879bba0f875dca5863e5e68e31485914c54caecf6b24ac1aef",
          "transactionIndex": "0x71",
          "logIndex": "0x1cf",
          "removed": false
        }
      ],
      "logsBloom": "0x00000000000000000000000004000000000000000000000000000000000000000000000000000000000000000000000000000000000000000000000000000000000000000000000000000000000000000000020000000000000000400100000000000000000000000000000000000000000000280000000000000000000000000000000000000000000000000000000000000000000000000000000000000001000000000000000000000000000000000000000000000000000000000000000000000000000000000000000000000000000000000000000000000000000000000000000000000000000000000000000000000000040000000000000000010000",
      "type": "0x2",
      "transactionHash": "0x709c74606a27d0879bba0f875dca5863e5e68e31485914c54caecf6b24ac1aef",
      "transactionIndex": "0x71",
      "blockHash": "0x0000000000000000000000000000000000000000000000000000000000000000",
      "blockNumber": "0x2b24fa5",
      "gasUsed": "0x18bd3",
      "effectiveGasPrice": "0x4dd1e0",
      "blobGasUsed": "0x39d0",
      "from": "0x708657da3e4effa7334779c9a1e759dc38a5bf94",
      "to": "0x10e39e8e313e0cc244ce7fa9cdbafcf412a44d88",
      "contractAddress": null,
      "daFootprintGasScalar": "0x94",
      "l1BaseFeeScalar": "0x8dd",
      "l1BlobBaseFee": "0x27aca3c",
      "l1BlobBaseFeeScalar": "0x101c12",
      "l1Fee": "0x22c20279c",
      "l1GasPrice": "0x2d35b9d6",
      "l1GasUsed": "0x640"
    },
    {
      "status": "0x1",
      "cumulativeGasUsed": "0x143f2b2",
      "logs": [
        {
          "address": "0x10e39e8e313e0cc244ce7fa9cdbafcf412a44d88",
          "topics": [
            "0x43dcf2166be267d8f6dc31580b9b1a605fddb5259a48dddd50b0348ac38fb24e",
            "0x0000000000000000000000007d959b225b5bb17230eb1810dc40fe18498ee154"
          ],
          "data": "0x",
          "blockHash": "0x0000000000000000000000000000000000000000000000000000000000000000",
          "blockNumber": "0x2b24fa5",
          "blockTimestamp": "0x69eefc2d",
          "transactionHash": "0x4c6aa62906cc9b48e1113b12a79b2b7c95695a9069f402866c789fee4681d2ad",
          "transactionIndex": "0x72",
          "logIndex": "0x1d0",
          "removed": false
        }
      ],
      "logsBloom": "0x00000000000000004000000000000000000000000000000000000000000000000000000000000000000000000000000000000200000000000000200000000000000000000000000000000000000000000000020000000000000000000000000000000000000000000000000000000000000000200000000000000000000000000000000000000000000000000000000000000000000000000000000000000000000000000000000000000000000000000000000000000000000000000000000000010000000000000000000000000000000000000000000000000000000000000000000000000000000080000000000200000000000000000000000000010000",
      "type": "0x2",
      "transactionHash": "0x4c6aa62906cc9b48e1113b12a79b2b7c95695a9069f402866c789fee4681d2ad",
      "transactionIndex": "0x72",
      "blockHash": "0x0000000000000000000000000000000000000000000000000000000000000000",
      "blockNumber": "0x2b24fa5",
      "gasUsed": "0x198f7",
      "effectiveGasPrice": "0x4dd1e0",
      "blobGasUsed": "0x39d0",
      "from": "0x708657da3e4effa7334779c9a1e759dc38a5bf94",
      "to": "0x10e39e8e313e0cc244ce7fa9cdbafcf412a44d88",
      "contractAddress": null,
      "daFootprintGasScalar": "0x94",
      "l1BaseFeeScalar": "0x8dd",
      "l1BlobBaseFee": "0x27aca3c",
      "l1BlobBaseFeeScalar": "0x101c12",
      "l1Fee": "0x22c20279c",
      "l1GasPrice": "0x2d35b9d6",
      "l1GasUsed": "0x640"
    }
  ],
  "libraries": [],
  "pending": [],
  "returns": {},
  "timestamp": 1777269804370,
  "chain": 8453,
  "commit": "2075ee4"
}