{
  "transactions": [
    {
      "hash": "0xd370871e28811ffba89eda8d7b41b75ca61475d0610c13ef59b98ad564b87d77",
      "transactionType": "CALL",
      "contractName": null,
      "contractAddress": "0x10e39e8e313e0cc244ce7fa9cdbafcf412a44d88",
      "function": "proposeValidatorUpdate(address,bool)",
      "arguments": [
        "0x8d7050a29C112638F0c9E0F103F3C498C2Bd948b",
        "true"
      ],
      "transaction": {
        "from": "0x708657da3e4effa7334779c9a1e759dc38a5bf94",
        "to": "0x10e39e8e313e0cc244ce7fa9cdbafcf412a44d88",
        "gas": "0x24f73",
        "value": "0x0",
        "input": "0x587605e90000000000000000000000008d7050a29c112638f0c9e0f103f3c498c2bd948b0000000000000000000000000000000000000000000000000000000000000001",
        "nonce": "0x72",
        "chainId": "0x2105"
      },
      "additionalContracts": [],
      "isFixedGasLimit": false
    },
    {
      "hash": "0x2efa46c36e6c21dde6642378309ef2ea2e36bb796dcf6cc3b23bee2732fd2dec",
      "transactionType": "CALL",
      "contractName": null,
      "contractAddress": "0x10e39e8e313e0cc244ce7fa9cdbafcf412a44d88",
      "function": "validateValidatorUpdate(address)",
      "arguments": [
        "0x8d7050a29C112638F0c9E0F103F3C498C2Bd948b"
      ],
      "transaction": {
        "from": "0x708657da3e4effa7334779c9a1e759dc38a5bf94",
        "to": "0x10e39e8e313e0cc244ce7fa9cdbafcf412a44d88",
        "gas": "0x2309a",
        "value": "0x0",
        "input": "0x8ea1865e0000000000000000000000008d7050a29c112638f0c9e0f103f3c498c2bd948b",
        "nonce": "0x73",
        "chainId": "0x2105"
      },
      "additionalContracts": [],
      "isFixedGasLimit": false
    },
    {
      "hash": "0xe39b9de1c6ed7d1c62c30c3066d14586d053a2a169d567217b7e7af1aaef1577",
      "transactionType": "CALL",
      "contractName": null,
      "contractAddress": "0x10e39e8e313e0cc244ce7fa9cdbafcf412a44d88",
      "function": "executeValidatorUpdate(address)",
      "arguments": [
        "0x8d7050a29C112638F0c9E0F103F3C498C2Bd948b"
      ],
      "transaction": {
        "from": "0x708657da3e4effa7334779c9a1e759dc38a5bf94",
        "to": "0x10e39e8e313e0cc244ce7fa9cdbafcf412a44d88",
        "gas": "0x17c82",
        "value": "0x0",
        "input": "0x3d027cb00000000000000000000000008d7050a29c112638f0c9e0f103f3c498c2bd948b",
        "nonce": "0x74",
        "chainId": "0x2105"
      },
      "additionalContracts": [],
      "isFixedGasLimit": false
    },
    {
      "hash": "0xffc8e34747b12ca2778ac0740ab8a2c5cdacf7ab3446145e4bd3695acd0b4198",
      "transactionType": "CALL",
      "contractName": null,
      "contractAddress": "0x10e39e8e313e0cc244ce7fa9cdbafcf412a44d88",
      "function": "updateRecovery(address,bool)",
      "arguments": [
        "0x8d7050a29C112638F0c9E0F103F3C498C2Bd948b",
        "true"
      ],
      "transaction": {
        "from": "0x708657da3e4effa7334779c9a1e759dc38a5bf94",
        "to": "0x10e39e8e313e0cc244ce7fa9cdbafcf412a44d88",
        "gas": "0x11834",
        "value": "0x0",
        "input": "0xbb3b41f60000000000000000000000008d7050a29c112638f0c9e0f103f3c498c2bd948b0000000000000000000000000000000000000000000000000000000000000001",
        "nonce": "0x75",
        "chainId": "0x2105"
      },
      "additionalContracts": [],
      "isFixedGasLimit": false
    }
  ],
  "receipts": [
    {
      "status": "0x1",
      "cumulativeGasUsed": "0x15e411e",
      "logs": [
        {
          "address": "0x10e39e8e313e0cc244ce7fa9cdbafcf412a44d88",
          "topics": [
            "0xf122f274276033cf46a71048adad4a34b6d2facd363320eeca1a7ed6d2ee7bb1",
            "0x0000000000000000000000008d7050a29c112638f0c9e0f103f3c498c2bd948b"
          ],
          "data": "0x0000000000000000000000000000000000000000000000000000000000000001",
          "blockHash": "0x0000000000000000000000000000000000000000000000000000000000000000",
          "blockNumber": "0x2b2bff1",
          "blockTimestamp": "0x69efdcc5",
          "transactionHash": "0xe39b9de1c6ed7d1c62c30c3066d14586d053a2a169d567217b7e7af1aaef1577",
          "transactionIndex": "0x80",
          "logIndex": "0x240",
          "removed": false
        }
      ],
      "logsBloom": "0x00000000000000000000000000000080000000000000000000000000000000000000000000000000000000000000000000000000000000000000000000000000000000000000000000000000000000000000020000000000000000000000000000000000000000000000000000000000000000200000000000000000000000000000000000000000000000000000000000000000000000000000000000000000000000000000000010000000000000000000000000000000000000000000000000000000000000200000000100000000000000000000000000000000000040000000080000000000000000000000000000000000000000000000000000010000",
      "type": "0x2",
      "transactionHash": "0xe39b9de1c6ed7d1c62c30c3066d14586d053a2a169d567217b7e7af1aaef1577",
      "transactionIndex": "0x80",
      "blockHash": "0x0000000000000000000000000000000000000000000000000000000000000000",
      "blockNumber": "0x2b2bff1",
      "gasUsed": "0x19469",
      "effectiveGasPrice": "0x4d6160",
      "blobGasUsed": "0x39d0",
      "from": "0x708657da3e4effa7334779c9a1e759dc38a5bf94",
      "to": "0x10e39e8e313e0cc244ce7fa9cdbafcf412a44d88",
      "contractAddress": null,
      "daFootprintGasScalar": "0x94",
      "l1BaseFeeScalar": "0x8dd",
      "l1BlobBaseFee": "0x1ee115c",
      "l1BlobBaseFeeScalar": "0x101c12",
      "l1Fee": "0x1cae3e62d",
      "l1GasPrice": "0x224f45dd",
      "l1GasUsed": "0x640"
    },
    {
      "status": "0x1",
      "cumulativeGasUsed": "0x15fd6fd",
      "logs": [
        {
          "address": "0x10e39e8e313e0cc244ce7fa9cdbafcf412a44d88",
          "topics": [
            "0xea15854380d5cd735f80fcf00ac275602d4b858845d77a40964e36df40f6961a",
            "0x000000000000000000000000708657da3e4effa7334779c9a1e759dc38a5bf94"
          ],
          "data": "0x000000000000000000000000000000000000000000000000000000000000000100000000000000000000000000000000000000000000000000000000000000010000000000000000000000000000000000000000000000000000000000000000",
          "blockHash": "0x0000000000000000000000000000000000000000000000000000000000000000",
          "blockNumber": "0x2b2bff1",
          "blockTimestamp": "0x69efdcc5",
          "transactionHash": "0xd370871e28811ffba89eda8d7b41b75ca61475d0610c13ef59b98ad564b87d77",
          "transactionIndex": "0x81",
          "logIndex": "0x241",
          "removed": false
        }
      ],
      "logsBloom": "0x00000000000000000000000004000000000000000000000000000000000000000000000000000000000000000000000000000000000000000000000000000000000000000000000000000000000000000000020000000000000000000000000000000000000000000000000000000000000000280000000000000000000000040000000000000000000000000000000000000000000000000000000000008001000000000000000000000080000000000000000000000000000000000000000000000000000000000000000000000000000000000000000000000000000000000000000000000000000000000000000000000000000000000000000000010000",
      "type": "0x2",
      "transactionHash": "0xd370871e28811ffba89eda8d7b41b75ca61475d0610c13ef59b98ad564b87d77",
      "transactionIndex": "0x81",
      "blockHash": "0x0000000000000000000000000000000000000000000000000000000000000000",
      "blockNumber": "0x2b2bff1",
      "gasUsed": "0x195df",
      "effectiveGasPrice": "0x4d6160",
      "blobGasUsed": "0x39d0",
      "from": "0x708657da3e4effa7334779c9a1e759dc38a5bf94",
      "to": "0x10e39e8e313e0cc244ce7fa9cdbafcf412a44d88",
      "contractAddress": null,
      "daFootprintGasScalar": "0x94",
      "l1BaseFeeScalar": "0x8dd",
      "l1BlobBaseFee": "0x1ee115c",
      "l1BlobBaseFeeScalar": "0x101c12",
      "l1Fee": "0x1cae3e62d",
      "l1GasPrice": "0x224f45dd",
      "l1GasUsed": "0x640"
    },
    {
      "status": "0x1",
      "cumulativeGasUsed": "0x160ea79",
      "logs": [
        {
          "address": "0x10e39e8e313e0cc244ce7fa9cdbafcf412a44d88",
          "topics": [
            "0x763b63b30e91c843bb39e4379603697003d3b7c1f192619cd782fa33bdc44396",
            "0x0000000000000000000000008d7050a29c112638f0c9e0f103f3c498c2bd948b"
          ],
          "data": "0x0000000000000000000000000000000000000000000000000000000000000001",
          "blockHash": "0x0000000000000000000000000000000000000000000000000000000000000000",
          "blockNumber": "0x2b2bff1",
          "blockTimestamp": "0x69efdcc5",
          "transactionHash": "0x2efa46c36e6c21dde6642378309ef2ea2e36bb796dcf6cc3b23bee2732fd2dec",
          "transactionIndex": "0x82",
          "logIndex": "0x242",
          "removed": false
        }
      ],
      "logsBloom": "0x00000000000000000000000000000000000000000000000000000000000000000000000000000000000000000000000000000000000000000000000000000000000000000000100000000000000000000000020000000000000000000000000000000000000000000000000000000000000000200000000000000000000000000000000000000000000000000000000000000000000000000000000000000000000000000000000010000000000000000000000000000000000000000000000000200000000000000000000100000000000000000000000800000000000000000000080000000000000000000000000000000000000000000000000000010000",
      "type": "0x2",
      "transactionHash": "0x2efa46c36e6c21dde6642378309ef2ea2e36bb796dcf6cc3b23bee2732fd2dec",
      "transactionIndex": "0x82",
      "blockHash": "0x0000000000000000000000000000000000000000000000000000000000000000",
      "blockNumber": "0x2b2bff1",
      "gasUsed": "0x1137c",
      "effectiveGasPrice": "0x4d6160",
      "blobGasUsed": "0x39d0",
      "from": "0x708657da3e4effa7334779c9a1e759dc38a5bf94",
      "to": "0x10e39e8e313e0cc244ce7fa9cdbafcf412a44d88",
      "contractAddress": null,
      "daFootprintGasScalar": "0x94",
      "l1BaseFeeScalar": "0x8dd",
      "l1BlobBaseFee": "0x1ee115c",
      "l1BlobBaseFeeScalar": "0x101c12",
      "l1Fee": "0x1cae3e62d",
      "l1GasPrice": "0x224f45dd",
      "l1GasUsed": "0x640"
    },
    {
      "status": "0x1",
      "cumulativeGasUsed": "0x161b557",
      "logs": [],
      "logsBloom": "0x00000000000000000000000000000000000000000000000000000000000000000000000000000000000000000000000000000000000000000000000000000000000000000000000000000000000000000000000000000000000000000000000000000000000000000000000000000000000000000000000000000000000000000000000000000000000000000000000000000000000000000000000000000000000000000000000000000000000000000000000000000000000000000000000000000000000000000000000000000000000000000000000000000000000000000000000000000000000000000000000000000000000000000000000000000000",
      "type": "0x2",
      "transactionHash": "0xffc8e34747b12ca2778ac0740ab8a2c5cdacf7ab3446145e4bd3695acd0b4198",
      "transactionIndex": "0x83",
      "blockHash": "0x0000000000000000000000000000000000000000000000000000000000000000",
      "blockNumber": "0x2b2bff1",
      "gasUsed": "0xcade",
      "effectiveGasPrice": "0x4d6160",
      "blobGasUsed": "0x39d0",
      "from": "0x708657da3e4effa7334779c9a1e759dc38a5bf94",
      "to": "0x10e39e8e313e0cc244ce7fa9cdbafcf412a44d88",
      "contractAddress": null,
      "daFootprintGasScalar": "0x94",
      "l1BaseFeeScalar": "0x8dd",
      "l1BlobBaseFee": "0x1ee115c",
      "l1BlobBaseFeeScalar": "0x101c12",
      "l1Fee": "0x1cae3e62d",
      "l1GasPrice": "0x224f45dd",
      "l1GasUsed": "0x640"
    }
  ],
  "libraries": [],
  "pending": [],
  "returns": {},
  "timestamp": 1777327298597,
  "chain": 8453,
  "commit": "2075ee4"
}