{
  "transactions": [
    {
      "hash": "0xf1e750878d91c7e624b08b09c724869809825faa9ce1fb0a82d245a539f7e4ab",
      "transactionType": "CALL",
      "contractName": null,
      "contractAddress": "0x9d22b9b449d59ba32435d2155ff184b922205db1",
      "function": "cancelValidatorUpdate(address)",
      "arguments": [
        "0xb298626EC29fceCD98d54ba542C6d391D3123Cb7"
      ],
      "transaction": {
        "from": "0x708657da3e4effa7334779c9a1e759dc38a5bf94",
        "to": "0x9d22b9b449d59ba32435d2155ff184b922205db1",
        "gas": "0x10d32",
        "value": "0x0",
        "input": "0x97e5621f000000000000000000000000b298626ec29fcecd98d54ba542c6d391d3123cb7",
        "nonce": "0x161",
        "chainId": "0x14a34"
      },
      "additionalContracts": [],
      "isFixedGasLimit": false
    },
    {
      "hash": "0x00297d008e3082b1a05f5e4efc5659387438f4f5af8765612dccc4726cf5dafe",
      "transactionType": "CALL",
      "contractName": null,
      "contractAddress": "0x9d22b9b449d59ba32435d2155ff184b922205db1",
      "function": "proposeValidatorUpdate(address,bool)",
      "arguments": [
        "0xb298626EC29fceCD98d54ba542C6d391D3123Cb7",
        "false"
      ],
      "transaction": {
        "from": "0x708657da3e4effa7334779c9a1e759dc38a5bf94",
        "to": "0x9d22b9b449d59ba32435d2155ff184b922205db1",
        "gas": "0x241be",
        "value": "0x0",
        "input": "0x587605e9000000000000000000000000b298626ec29fcecd98d54ba542c6d391d3123cb70000000000000000000000000000000000000000000000000000000000000000",
        "nonce": "0x162",
        "chainId": "0x14a34"
      },
      "additionalContracts": [],
      "isFixedGasLimit": false
    },
    {
      "hash": "0x49b16a9214bfe7260d813c214957108429e0ab018ec53e9e9f5c2f634f601767",
      "transactionType": "CALL",
      "contractName": null,
      "contractAddress": "0x9d22b9b449d59ba32435d2155ff184b922205db1",
      "function": "validateValidatorUpdate(address)",
      "arguments": [
        "0xb298626EC29fceCD98d54ba542C6d391D3123Cb7"
      ],
      "transaction": {
        "from": "0x708657da3e4effa7334779c9a1e759dc38a5bf94",
        "to": "0x9d22b9b449d59ba32435d2155ff184b922205db1",
        "gas": "0x2309a",
        "value": "0x0",
        "input": "0x8ea1865e000000000000000000000000b298626ec29fcecd98d54ba542c6d391d3123cb7",
        "nonce": "0x163",
        "chainId": "0x14a34"
      },
      "additionalContracts": [],
      "isFixedGasLimit": false
    },
    {
      "hash": "0xb1dc9c9da99146020e09c4dec2420fa30a92e675ae57ddef0964051bf809a3ea",
      "transactionType": "CALL",
      "contractName": null,
      "contractAddress": "0x9d22b9b449d59ba32435d2155ff184b922205db1",
      "function": "executeValidatorUpdate(address)",
      "arguments": [
        "0xb298626EC29fceCD98d54ba542C6d391D3123Cb7"
      ],
      "transaction": {
        "from": "0x708657da3e4effa7334779c9a1e759dc38a5bf94",
        "to": "0x9d22b9b449d59ba32435d2155ff184b922205db1",
        "gas": "0xe873",
        "value": "0x0",
        "input": "0x3d027cb0000000000000000000000000b298626ec29fcecd98d54ba542c6d391d3123cb7",
        "nonce": "0x164",
        "chainId": "0x14a34"
      },
      "additionalContracts": [],
      "isFixedGasLimit": false
    }
  ],
  "receipts": [
    {
      "status": "0x1",
      "cumulativeGasUsed": "0x247184",
      "logs": [
        {
          "address": "0x9d22b9b449d59ba32435d2155ff184b922205db1",
          "topics": [
            "0xd84d8272d79732917c480062332107203bff3aff50aaff43c1566d3cfb97da25",
            "0x000000000000000000000000b298626ec29fcecd98d54ba542c6d391d3123cb7"
          ],
          "data": "0x",
          "blockHash": "0x0000000000000000000000000000000000000000000000000000000000000000",
          "blockNumber": "0x26c2426",
          "blockTimestamp": "0x69eba72c",
          "transactionHash": "0xb1dc9c9da99146020e09c4dec2420fa30a92e675ae57ddef0964051bf809a3ea",
          "transactionIndex": "0xb",
          "logIndex": "0x43",
          "removed": false
        }
      ],
      "logsBloom": "0x00000000000000000000000000000008000020000000000000000000000000000000000000000000000000000000000000000000000000000000000000000000000000000000008000000000000002000000000000000000000000000040000000000000000000000000000000000000000000000000000000000000000000000000000000000000000000000000002000000000000000800000000000000000000000000000000000000200000000000000000000000000000000000000000000000000000000000000000000000000000000000000000000000000000000000000000000000000000000000000000000000008000000000000000000000000",
      "type": "0x2",
      "transactionHash": "0xb1dc9c9da99146020e09c4dec2420fa30a92e675ae57ddef0964051bf809a3ea",
      "transactionIndex": "0xb",
      "blockHash": "0x0000000000000000000000000000000000000000000000000000000000000000",
      "blockNumber": "0x26c2426",
      "gasUsed": "0xb811",
      "effectiveGasPrice": "0x5b8d80",
      "blobGasUsed": "0x39d0",
      "from": "0x708657da3e4effa7334779c9a1e759dc38a5bf94",
      "to": "0x9d22b9b449d59ba32435d2155ff184b922205db1",
      "contractAddress": null,
      "daFootprintGasScalar": "0x94",
      "l1BaseFeeScalar": "0x44d",
      "l1BlobBaseFee": "0x1236220",
      "l1BlobBaseFeeScalar": "0xa118b",
      "l1Fee": "0x90898881",
      "l1GasPrice": "0x13cde631",
      "l1GasUsed": "0x640"
    },
    {
      "status": "0x1",
      "cumulativeGasUsed": "0x25fc8e",
      "logs": [
        {
          "address": "0x9d22b9b449d59ba32435d2155ff184b922205db1",
          "topics": [
            "0xf122f274276033cf46a71048adad4a34b6d2facd363320eeca1a7ed6d2ee7bb1",
            "0x000000000000000000000000b298626ec29fcecd98d54ba542c6d391d3123cb7"
          ],
          "data": "0x0000000000000000000000000000000000000000000000000000000000000000",
          "blockHash": "0x0000000000000000000000000000000000000000000000000000000000000000",
          "blockNumber": "0x26c2426",
          "blockTimestamp": "0x69eba72c",
          "transactionHash": "0x00297d008e3082b1a05f5e4efc5659387438f4f5af8765612dccc4726cf5dafe",
          "transactionIndex": "0xc",
          "logIndex": "0x44",
          "removed": false
        }
      ],
      "logsBloom": "0x00000000000000000000000000000088000000000000000000000000000000000000000000000000000000000000000000000000000000000000000000000000000000000000000000000000000002000000000000000000000000000000000000000000000000000000000000000000000000000000000000000000000000000000000000000000000000000000002000000000000000800000000000000000000000000000000000000200000000000000000000000000000000000000000000000000000000200000000000000000000000000000000000000000000040000000000000000000000000000000000000000008000000000000000000000000",
      "type": "0x2",
      "transactionHash": "0x00297d008e3082b1a05f5e4efc5659387438f4f5af8765612dccc4726cf5dafe",
      "transactionIndex": "0xc",
      "blockHash": "0x0000000000000000000000000000000000000000000000000000000000000000",
      "blockNumber": "0x26c2426",
      "gasUsed": "0x18b0a",
      "effectiveGasPrice": "0x5b8d80",
      "blobGasUsed": "0x39d0",
      "from": "0x708657da3e4effa7334779c9a1e759dc38a5bf94",
      "to": "0x9d22b9b449d59ba32435d2155ff184b922205db1",
      "contractAddress": null,
      "daFootprintGasScalar": "0x94",
      "l1BaseFeeScalar": "0x44d",
      "l1BlobBaseFee": "0x1236220",
      "l1BlobBaseFeeScalar": "0xa118b",
      "l1Fee": "0x90898881",
      "l1GasPrice": "0x13cde631",
      "l1GasUsed": "0x640"
    },
    {
      "status": "0x1",
      "cumulativeGasUsed": "0x27926d",
      "logs": [
        {
          "address": "0x9d22b9b449d59ba32435d2155ff184b922205db1",
          "topics": [
            "0xea15854380d5cd735f80fcf00ac275602d4b858845d77a40964e36df40f6961a",
            "0x000000000000000000000000708657da3e4effa7334779c9a1e759dc38a5bf94"
          ],
          "data": "0x000000000000000000000000000000000000000000000000000000000000000100000000000000000000000000000000000000000000000000000000000000000000000000000000000000000000000000000000000000000000000000000000",
          "blockHash": "0x0000000000000000000000000000000000000000000000000000000000000000",
          "blockNumber": "0x26c2426",
          "blockTimestamp": "0x69eba72c",
          "transactionHash": "0x49b16a9214bfe7260d813c214957108429e0ab018ec53e9e9f5c2f634f601767",
          "transactionIndex": "0xd",
          "logIndex": "0x45",
          "removed": false
        }
      ],
      "logsBloom": "0x00000000000000000000000004000000000000000000000000000000000000000000000000000000000000000000000000000000000000000000000000000000000000000000000000000000000000000000000000000000000000000000000000000000000000000000000000000000000000080000000000000000000000040000000000000000000000000000002000000000000000000000000000008001000000000000000000000280000000000000000000000000000000000000000000000000000000000000000000000000000000000000000000000000000000000000000000000000000000000000000000000008000000000000000000000000",
      "type": "0x2",
      "transactionHash": "0x49b16a9214bfe7260d813c214957108429e0ab018ec53e9e9f5c2f634f601767",
      "transactionIndex": "0xd",
      "blockHash": "0x0000000000000000000000000000000000000000000000000000000000000000",
      "blockNumber": "0x26c2426",
      "gasUsed": "0x195df",
      "effectiveGasPrice": "0x5b8d80",
      "blobGasUsed": "0x39d0",
      "from": "0x708657da3e4effa7334779c9a1e759dc38a5bf94",
      "to": "0x9d22b9b449d59ba32435d2155ff184b922205db1",
      "contractAddress": null,
      "daFootprintGasScalar": "0x94",
      "l1BaseFeeScalar": "0x44d",
      "l1BlobBaseFee": "0x1236220",
      "l1BlobBaseFeeScalar": "0xa118b",
      "l1Fee": "0x90898881",
      "l1GasPrice": "0x13cde631",
      "l1GasUsed": "0x640"
    },
    {
      "status": "0x1",
      "cumulativeGasUsed": "0x28315e",
      "logs": [
        {
          "address": "0x9d22b9b449d59ba32435d2155ff184b922205db1",
          "topics": [
            "0x763b63b30e91c843bb39e4379603697003d3b7c1f192619cd782fa33bdc44396",
            "0x000000000000000000000000b298626ec29fcecd98d54ba542c6d391d3123cb7"
          ],
          "data": "0x0000000000000000000000000000000000000000000000000000000000000000",
          "blockHash": "0x0000000000000000000000000000000000000000000000000000000000000000",
          "blockNumber": "0x26c2426",
          "blockTimestamp": "0x69eba72c",
          "transactionHash": "0xf1e750878d91c7e624b08b09c724869809825faa9ce1fb0a82d245a539f7e4ab",
          "transactionIndex": "0xe",
          "logIndex": "0x46",
          "removed": false
        }
      ],
      "logsBloom": "0x00000000000000000000000000000008000000000000000000000000000000000000000000000000000000000000000000000000000000000000000000000000000000000000100000000000000002000000000000000000000000000000000000000000000000000000000000000000000000000000000000000000000000000000000000000000000000000000002000000000000000800000000000000000000000000000000000000200000000000000000000000000000000000000000000200000000000000000000000000000000000000000000800000000000000000000000000000000000000000000000000000008000000000000000000000000",
      "type": "0x2",
      "transactionHash": "0xf1e750878d91c7e624b08b09c724869809825faa9ce1fb0a82d245a539f7e4ab",
      "transactionIndex": "0xe",
      "blockHash": "0x0000000000000000000000000000000000000000000000000000000000000000",
      "blockNumber": "0x26c2426",
      "gasUsed": "0x9ef1",
      "effectiveGasPrice": "0x5b8d80",
      "blobGasUsed": "0x39d0",
      "from": "0x708657da3e4effa7334779c9a1e759dc38a5bf94",
      "to": "0x9d22b9b449d59ba32435d2155ff184b922205db1",
      "contractAddress": null,
      "daFootprintGasScalar": "0x94",
      "l1BaseFeeScalar": "0x44d",
      "l1BlobBaseFee": "0x1236220",
      "l1BlobBaseFeeScalar": "0xa118b",
      "l1Fee": "0x90898881",
      "l1GasPrice": "0x13cde631",
      "l1GasUsed": "0x640"
    }
  ],
  "libraries": [],
  "pending": [],
  "returns": {},
  "timestamp": 1777051401305,
  "chain": 84532,
  "commit": "14b850d"
}