{
  "transactions": [
    {
      "hash": "0xcbd26fd3890dfac351777b459ca2b001d24f443cf3f3230c62711022ee95dad4",
      "transactionType": "CALL",
      "contractName": null,
      "contractAddress": "0x4b93bbee3a069f6bcdd387c86ee79ae2dde89ac1",
      "function": "cancelValidatorUpdate(address)",
      "arguments": [
        "0xF7cB5cd65D10A435A13DC264BaDcc4bd01ef0C43"
      ],
      "transaction": {
        "from": "0x708657da3e4effa7334779c9a1e759dc38a5bf94",
        "to": "0x4b93bbee3a069f6bcdd387c86ee79ae2dde89ac1",
        "gas": "0xf39a",
        "value": "0x0",
        "input": "0x97e5621f000000000000000000000000f7cb5cd65d10a435a13dc264badcc4bd01ef0c43",
        "nonce": "0x179",
        "chainId": "0x14a34"
      },
      "additionalContracts": [],
      "isFixedGasLimit": false
    }
  ],
  "receipts": [
    {
      "status": "0x1",
      "cumulativeGasUsed": "0x4e5162",
      "logs": [
        {
          "address": "0x4b93bbee3a069f6bcdd387c86ee79ae2dde89ac1",
          "topics": [
            "0xd84d8272d79732917c480062332107203bff3aff50aaff43c1566d3cfb97da25",
            "0x000000000000000000000000f7cb5cd65d10a435a13dc264badcc4bd01ef0c43"
          ],
          "data": "0x",
          "blockHash": "0xd8395f660ab89d324924319b171b44d793ac5e48a8dfeab7081e150a1ee4cb31",
          "blockNumber": "0x26c5c65",
          "blockTimestamp": "0x69ec17aa",
          "transactionHash": "0xcbd26fd3890dfac351777b459ca2b001d24f443cf3f3230c62711022ee95dad4",
          "transactionIndex": "0xb",
          "logIndex": "0x26",
          "removed": false
        }
      ],
      "logsBloom": "0x00000000000000000000000000000000000020000000000000000000000000000000000000000000000000000000000000000000000000000000000000000000000000000000008000000000000000000000000000000000000000000040000000000000000000000000000000000000000000000000000000000000000000000000000000000000000000000000000000008000000000000000000000000000000000000080000000000020008000000000000000000000800000000000000000000000000000000000000000000000000000000000000000000100000000000000000000000000000000000000000000000000000000000000000000000000",
      "type": "0x2",
      "transactionHash": "0xcbd26fd3890dfac351777b459ca2b001d24f443cf3f3230c62711022ee95dad4",
      "transactionIndex": "0xb",
      "blockHash": "0xd8395f660ab89d324924319b171b44d793ac5e48a8dfeab7081e150a1ee4cb31",
      "blockNumber": "0x26c5c65",
      "gasUsed": "0xa691",
      "effectiveGasPrice": "0x5b8d80",
      "blobGasUsed": "0x39d0",
      "from": "0x708657da3e4effa7334779c9a1e759dc38a5bf94",
      "to": "0x4b93bbee3a069f6bcdd387c86ee79ae2dde89ac1",
      "contractAddress": null,
      "daFootprintGasScalar": "0x94",
      "l1BaseFeeScalar": "0x44d",
      "l1BlobBaseFee": "0x7cec7",
      "l1BlobBaseFeeScalar": "0xa118b",
      "l1Fee": "0x2e162c4",
      "l1GasPrice": "0x7e2189",
      "l1GasUsed": "0x640"
    }
  ],
  "libraries": [],
  "pending": [],
  "returns": {},
  "timestamp": 1777080199481,
  "chain": 84532,
  "commit": "14b850d"
}