{
  "transactions": [
    {
      "hash": "0x74572a60216b6ec766bbc66da821db87b1bec66991adf9659f0ea16bd2838a7a",
      "transactionType": "CALL",
      "contractName": null,
      "contractAddress": "0x361a059ae5ef356f70dd535dc3f5a7db59350ec6",
      "function": "proposeValidatorUpdate(address,bool)",
      "arguments": [
        "0xF9580bf31a403Eea7D1a6e85725966B18DAc7251",
        "true"
      ],
      "transaction": {
        "from": "0x708657da3e4effa7334779c9a1e759dc38a5bf94",
        "to": "0x361a059ae5ef356f70dd535dc3f5a7db59350ec6",
        "gas": "0x22e85",
        "value": "0x0",
        "input": "0x587605e9000000000000000000000000f9580bf31a403eea7d1a6e85725966b18dac72510000000000000000000000000000000000000000000000000000000000000001",
        "nonce": "0x182",
        "chainId": "0x14a34"
      },
      "additionalContracts": [],
      "isFixedGasLimit": false
    },
    {
      "hash": "0xdd66ec104f7773f40c92f058a965c14e165c9cb921d858fc8d0bf2d0bd601503",
      "transactionType": "CALL",
      "contractName": null,
      "contractAddress": "0x361a059ae5ef356f70dd535dc3f5a7db59350ec6",
      "function": "validateValidatorUpdate(address)",
      "arguments": [
        "0xF9580bf31a403Eea7D1a6e85725966B18DAc7251"
      ],
      "transaction": {
        "from": "0x708657da3e4effa7334779c9a1e759dc38a5bf94",
        "to": "0x361a059ae5ef356f70dd535dc3f5a7db59350ec6",
        "gas": "0x2309a",
        "value": "0x0",
        "input": "0x8ea1865e000000000000000000000000f9580bf31a403eea7d1a6e85725966b18dac7251",
        "nonce": "0x183",
        "chainId": "0x14a34"
      },
      "additionalContracts": [],
      "isFixedGasLimit": false
    },
    {
      "hash": "0x79b284d3c9ecafbe36c6e4b4ec95b9f8eb86b632070c43fb21676392fb5d52da",
      "transactionType": "CALL",
      "contractName": null,
      "contractAddress": "0x361a059ae5ef356f70dd535dc3f5a7db59350ec6",
      "function": "executeValidatorUpdate(address)",
      "arguments": [
        "0xF9580bf31a403Eea7D1a6e85725966B18DAc7251"
      ],
      "transaction": {
        "from": "0x708657da3e4effa7334779c9a1e759dc38a5bf94",
        "to": "0x361a059ae5ef356f70dd535dc3f5a7db59350ec6",
        "gas": "0x17c82",
        "value": "0x0",
        "input": "0x3d027cb0000000000000000000000000f9580bf31a403eea7d1a6e85725966b18dac7251",
        "nonce": "0x184",
        "chainId": "0x14a34"
      },
      "additionalContracts": [],
      "isFixedGasLimit": false
    }
  ],
  "receipts": [
    {
      "status": "0x1",
      "cumulativeGasUsed": "0x7a595",
      "logs": [
        {
          "address": "0x361a059ae5ef356f70dd535dc3f5a7db59350ec6",
          "topics": [
            "0xf122f274276033cf46a71048adad4a34b6d2facd363320eeca1a7ed6d2ee7bb1",
            "0x000000000000000000000000f9580bf31a403eea7d1a6e85725966b18dac7251"
          ],
          "data": "0x0000000000000000000000000000000000000000000000000000000000000001",
          "blockHash": "0x0000000000000000000000000000000000000000000000000000000000000000",
          "blockNumber": "0x26c6638",
          "blockTimestamp": "0x69ec2b50",
          "transactionHash": "0x79b284d3c9ecafbe36c6e4b4ec95b9f8eb86b632070c43fb21676392fb5d52da",
          "transactionIndex": "0x2",
          "logIndex": "0xb",
          "removed": false
        }
      ],
      "logsBloom": "0x00000000000000000000000000000080000000000000000000000000000000000000000000000000000000000000000000000000000000000000000000000000000000000000000000000000000000000000000000000000000000000000000000000000000000000000000000000000000000000000000000000000000010000000000000000000000000000000000080000000000000000000000000000000000000002000000000000000000000000000000000000000000000000000000000000000000000200000000000000000000000000000000000000000000040000000000000000000000000000080000080000000000000000000000000001000",
      "type": "0x2",
      "transactionHash": "0x79b284d3c9ecafbe36c6e4b4ec95b9f8eb86b632070c43fb21676392fb5d52da",
      "transactionIndex": "0x2",
      "blockHash": "0x0000000000000000000000000000000000000000000000000000000000000000",
      "blockNumber": "0x26c6638",
      "gasUsed": "0x1945d",
      "effectiveGasPrice": "0x5b8d80",
      "blobGasUsed": "0x39d0",
      "from": "0x708657da3e4effa7334779c9a1e759dc38a5bf94",
      "to": "0x361a059ae5ef356f70dd535dc3f5a7db59350ec6",
      "contractAddress": null,
      "daFootprintGasScalar": "0x94",
      "l1BaseFeeScalar": "0x44d",
      "l1BlobBaseFee": "0x483ba5",
      "l1BlobBaseFeeScalar": "0xa118b",
      "l1Fee": "0x92d64cf3",
      "l1GasPrice": "0x4bc4db8",
      "l1GasUsed": "0x640"
    },
    {
      "status": "0x1",
      "cumulativeGasUsed": "0x93b74",
      "logs": [
        {
          "address": "0x361a059ae5ef356f70dd535dc3f5a7db59350ec6",
          "topics": [
            "0xea15854380d5cd735f80fcf00ac275602d4b858845d77a40964e36df40f6961a",
            "0x000000000000000000000000708657da3e4effa7334779c9a1e759dc38a5bf94"
          ],
          "data": "0x000000000000000000000000000000000000000000000000000000000000000100000000000000000000000000000000000000000000000000000000000000010000000000000000000000000000000000000000000000000000000000000000",
          "blockHash": "0x0000000000000000000000000000000000000000000000000000000000000000",
          "blockNumber": "0x26c6638",
          "blockTimestamp": "0x69ec2b50",
          "transactionHash": "0x74572a60216b6ec766bbc66da821db87b1bec66991adf9659f0ea16bd2838a7a",
          "transactionIndex": "0x3",
          "logIndex": "0xc",
          "removed": false
        }
      ],
      "logsBloom": "0x00000000000000000000000004000000000000000000000000000000000000000000000000000000000000000000000000000000000000000000000000000000000000000000000000000000000000000000000000000000000000000000000000000000000000000000000000000000000000080000000000000000000000040000000000000000000000000000000080000000000000000000000000008001000000000000000000000080000000000000000000000000000000000000000000000000000000000000000000000000000000000000000000000000000000000000000000000000000000000080000080000000000000000000000000000000",
      "type": "0x2",
      "transactionHash": "0x74572a60216b6ec766bbc66da821db87b1bec66991adf9659f0ea16bd2838a7a",
      "transactionIndex": "0x3",
      "blockHash": "0x0000000000000000000000000000000000000000000000000000000000000000",
      "blockNumber": "0x26c6638",
      "gasUsed": "0x195df",
      "effectiveGasPrice": "0x5b8d80",
      "blobGasUsed": "0x39d0",
      "from": "0x708657da3e4effa7334779c9a1e759dc38a5bf94",
      "to": "0x361a059ae5ef356f70dd535dc3f5a7db59350ec6",
      "contractAddress": null,
      "daFootprintGasScalar": "0x94",
      "l1BaseFeeScalar": "0x44d",
      "l1BlobBaseFee": "0x483ba5",
      "l1BlobBaseFeeScalar": "0xa118b",
      "l1Fee": "0x92d64cf3",
      "l1GasPrice": "0x4bc4db8",
      "l1GasUsed": "0x640"
    },
    {
      "status": "0x1",
      "cumulativeGasUsed": "0xa4ef0",
      "logs": [
        {
          "address": "0x361a059ae5ef356f70dd535dc3f5a7db59350ec6",
          "topics": [
            "0x763b63b30e91c843bb39e4379603697003d3b7c1f192619cd782fa33bdc44396",
            "0x000000000000000000000000f9580bf31a403eea7d1a6e85725966b18dac7251"
          ],
          "data": "0x0000000000000000000000000000000000000000000000000000000000000001",
          "blockHash": "0x0000000000000000000000000000000000000000000000000000000000000000",
          "blockNumber": "0x26c6638",
          "blockTimestamp": "0x69ec2b50",
          "transactionHash": "0xdd66ec104f7773f40c92f058a965c14e165c9cb921d858fc8d0bf2d0bd601503",
          "transactionIndex": "0x4",
          "logIndex": "0xd",
          "removed": false
        }
      ],
      "logsBloom": "0x00000000000000000000000000000000000000000000000000000000000000000000000000000000000000000000000000000000000000000000000000000000000000000000100000000000000000000000000000000000000000000000000000000000000000000000000000000000000000000000000000000000000010000000000000000000000000000000000080000000000000000000000000000000000000002000000000000000000000000000000000000000000000000000000000200000000000000000000000000000000000000000000800000000000000000000000000000000000000000080000080000000000000000000000000001000",
      "type": "0x2",
      "transactionHash": "0xdd66ec104f7773f40c92f058a965c14e165c9cb921d858fc8d0bf2d0bd601503",
      "transactionIndex": "0x4",
      "blockHash": "0x0000000000000000000000000000000000000000000000000000000000000000",
      "blockNumber": "0x26c6638",
      "gasUsed": "0x1137c",
      "effectiveGasPrice": "0x5b8d80",
      "blobGasUsed": "0x39d0",
      "from": "0x708657da3e4effa7334779c9a1e759dc38a5bf94",
      "to": "0x361a059ae5ef356f70dd535dc3f5a7db59350ec6",
      "contractAddress": null,
      "daFootprintGasScalar": "0x94",
      "l1BaseFeeScalar": "0x44d",
      "l1BlobBaseFee": "0x483ba5",
      "l1BlobBaseFeeScalar": "0xa118b",
      "l1Fee": "0x92d64cf3",
      "l1GasPrice": "0x4bc4db8",
      "l1GasUsed": "0x640"
    }
  ],
  "libraries": [],
  "pending": [],
  "returns": {},
  "timestamp": 1777085228535,
  "chain": 84532,
  "commit": "14b850d"
}