{
  "transactions": [
    {
      "hash": "0x8da7a32f1b794d71e2ac20f9861a1f0c9a3468bf075640a0832e174d4d0ca124",
      "transactionType": "CALL",
      "contractName": null,
      "contractAddress": "0x361a059ae5ef356f70dd535dc3f5a7db59350ec6",
      "function": "cancelUpgrade(address)",
      "arguments": [
        "0x9FfD1CAfa081a5AbfA302234C2ccA751e50b4A23"
      ],
      "transaction": {
        "from": "0x708657da3e4effa7334779c9a1e759dc38a5bf94",
        "to": "0x361a059ae5ef356f70dd535dc3f5a7db59350ec6",
        "gas": "0xfbda",
        "value": "0x0",
        "input": "0xc44fb8ec0000000000000000000000009ffd1cafa081a5abfa302234c2cca751e50b4a23",
        "nonce": "0x188",
        "chainId": "0x14a34"
      },
      "additionalContracts": [],
      "isFixedGasLimit": false
    }
  ],
  "receipts": [
    {
      "status": "0x1",
      "cumulativeGasUsed": "0x897a0f",
      "logs": [
        {
          "address": "0x361a059ae5ef356f70dd535dc3f5a7db59350ec6",
          "topics": [
            "0x3198dc80249fcfedbd0d06e1ff49a7695a51b006592328ce0b127cdeab77e936",
            "0x0000000000000000000000009ffd1cafa081a5abfa302234c2cca751e50b4a23"
          ],
          "data": "0x",
          "blockHash": "0x0000000000000000000000000000000000000000000000000000000000000000",
          "blockNumber": "0x26c672f",
          "blockTimestamp": "0x69ec2d3e",
          "transactionHash": "0x8da7a32f1b794d71e2ac20f9861a1f0c9a3468bf075640a0832e174d4d0ca124",
          "transactionIndex": "0x11",
          "logIndex": "0xd0",
          "removed": false
        }
      ],
      "logsBloom": "0x00000000000000000000000000000000000000000000000000000000000000000000000000000000000000000000000000000000000000000000000000000000000000000000000000000000000000000000000000000000000000000000000000000000000000000000000000000000000000000000000000000000000000000000000000000040000000000000000080000000000000000000000000004000000000000000000080000000000000000000000000000000000000000008000000000000000000000000000000000000000000000000000000000000000000000000000000000080000000000280000080000000000000000000000000000000",
      "type": "0x2",
      "transactionHash": "0x8da7a32f1b794d71e2ac20f9861a1f0c9a3468bf075640a0832e174d4d0ca124",
      "transactionIndex": "0x11",
      "blockHash": "0x0000000000000000000000000000000000000000000000000000000000000000",
      "blockNumber": "0x26c672f",
      "gasUsed": "0xb657",
      "effectiveGasPrice": "0x4c4b41",
      "blobGasUsed": "0x39d0",
      "from": "0x708657da3e4effa7334779c9a1e759dc38a5bf94",
      "to": "0x361a059ae5ef356f70dd535dc3f5a7db59350ec6",
      "contractAddress": null,
      "daFootprintGasScalar": "0x94",
      "l1BaseFeeScalar": "0x44d",
      "l1BlobBaseFee": "0x36c5ea",
      "l1BlobBaseFeeScalar": "0xa118b",
      "l1Fee": "0x2c04c540",
      "l1GasPrice": "0x39adb79",
      "l1GasUsed": "0x640"
    }
  ],
  "libraries": [],
  "pending": [],
  "returns": {},
  "timestamp": 1777085722534,
  "chain": 84532,
  "commit": "14b850d"
}