{
  "transactions": [
    {
      "hash": "0x802ba14f9edc941e56b6a4553b93e6ff3923c80caa82f4131aebf73b1b680401",
      "transactionType": "CREATE",
      "contractName": "RegistryFactory",
      "contractAddress": "0x7d45eec6b9cf9032e068060425aa97e5d9cb8b29",
      "function": null,
      "arguments": null,
      "transaction": {
        "from": "0x708657da3e4effa7334779c9a1e759dc38a5bf94",
        "gas": "0x1efb90",
        "value": "0x0",
        "input": "0x60a06040523073ffffffffffffffffffffffffffffffffffffffff1660809073ffffffffffffffffffffffffffffffffffffffff16815250348015610042575f5ffd5b5061005161005660201b60201c565b6101d1565b5f61006561015460201b60201c565b9050805f0160089054906101000a900460ff16156100af576040517ff92ee8a900000000000000000000000000000000000000000000000000000000815260040160405180910390fd5b67ffffffffffffffff8016815f015f9054906101000a900467ffffffffffffffff1667ffffffffffffffff16146101515767ffffffffffffffff815f015f6101000a81548167ffffffffffffffff021916908367ffffffffffffffff1602179055507fc7f505b2f371ae2175ee4913f4499e1f2633a7b5936321eed1cdaeb6115181d267ffffffffffffffff60405161014891906101b8565b60405180910390a15b50565b5f5f61016461016d60201b60201c565b90508091505090565b5f7ff0c57e16840df040f15088dc2f81fe391c3923bec73e23a9662efc9c229c6a005f1b905090565b5f67ffffffffffffffff82169050919050565b6101b281610196565b82525050565b5f6020820190506101cb5f8301846101a9565b92915050565b608051611ad96101f75f395f8181610cd501528181610d2a0152610f690152611ad95ff3fe6080604052600436106100e7575f3560e01c8063a2e0143711610089578063ced72f8711610058578063ced72f8714610306578063dbf6248914610330578063f8c8765e14610346578063f93b6be51461036e576100e7565b8063a2e014371461024c578063a7ecd37e14610276578063aaf10f42146102b2578063ad3cb1cc146102dc576100e7565b806352d1902d116100c557806352d1902d1461016e578063732d87c1146101985780638961cdb5146101d45780639012c4a814610210576100e7565b8063025b22bc146100eb57806342219d65146101275780634f1ef28614610152575b5f5ffd5b3480156100f6575f5ffd5b50610111600480360381019061010c91906114a3565b610384565b60405161011e91906114e8565b60405180910390f35b348015610132575f5ffd5b5061013b61045a565b604051610149929190611510565b60405180910390f35b61016c60048036038101906101679190611673565b6104ef565b005b348015610179575f5ffd5b5061018261050e565b60405161018f91906116e5565b60405180910390f35b3480156101a3575f5ffd5b506101be60048036038101906101b991906114a3565b61053f565b6040516101cb91906114e8565b60405180910390f35b3480156101df575f5ffd5b506101fa60048036038101906101f5919061175b565b610589565b60405161020791906117cc565b60405180910390f35b34801561021b575f5ffd5b5061023660048036038101906102319190611818565b6106cc565b60405161024391906114e8565b60405180910390f35b348015610257575f5ffd5b5061026061076a565b60405161026d91906117cc565b60405180910390f35b348015610281575f5ffd5b5061029c600480360381019061029791906114a3565b610791565b6040516102a991906114e8565b60405180910390f35b3480156102bd575f5ffd5b506102c6610868565b6040516102d391906117cc565b60405180910390f35b3480156102e7575f5ffd5b506102f0610876565b6040516102fd91906118a3565b60405180910390f35b348015610311575f5ffd5b5061031a6108af565b60405161032791906118d2565b60405180910390f35b34801561033b575f5ffd5b506103446108ff565b005b348015610351575f5ffd5b5061036c600480360381019061036791906118eb565b6109a9565b005b348015610379575f5ffd5b50610382610c23565b005b5f60015f9054906101000a900473ffffffffffffffffffffffffffffffffffffffff1673ffffffffffffffffffffffffffffffffffffffff166103c5610ccc565b73ffffffffffffffffffffffffffffffffffffffff1614610412576040517f02feec6b00000000000000000000000000000000000000000000000000000000815260040160405180910390fd5b815f5f6101000a81548173ffffffffffffffffffffffffffffffffffffffff021916908373ffffffffffffffffffffffffffffffffffffffff16021790555060019050919050565b5f5f600360149054906101000a900460ff16156104a3576040517f02feec6b00000000000000000000000000000000000000000000000000000000815260040160405180910390fd5b60025f9054906101000a900473ffffffffffffffffffffffffffffffffffffffff1660035f9054906101000a900473ffffffffffffffffffffffffffffffffffffffff16915091509091565b6104f7610cd3565b61050082610db9565b61050a8282610e49565b5050565b5f610517610f67565b7f360894a13ba1a3210667c828492db98dca3e2076cc3735a920a3ca505d382bbc5f1b905090565b5f8160035f6101000a81548173ffffffffffffffffffffffffffffffffffffffff021916908373ffffffffffffffffffffffffffffffffffffffff16021790555060019050919050565b5f60015f9054906101000a900473ffffffffffffffffffffffffffffffffffffffff1673ffffffffffffffffffffffffffffffffffffffff166105ca610ccc565b73ffffffffffffffffffffffffffffffffffffffff1614610617576040517f02feec6b00000000000000000000000000000000000000000000000000000000815260040160405180910390fd5b6106565f5f9054906101000a900473ffffffffffffffffffffffffffffffffffffffff1673ffffffffffffffffffffffffffffffffffffffff16610fee565b90508073ffffffffffffffffffffffffffffffffffffffff16634571e3a6868686866040518563ffffffff1660e01b8152600401610697949392919061197b565b5f604051808303815f87803b1580156106ae575f5ffd5b505af11580156106c0573d5f5f3e3d5ffd5b50505050949350505050565b5f60015f9054906101000a900473ffffffffffffffffffffffffffffffffffffffff1673ffffffffffffffffffffffffffffffffffffffff1661070d610ccc565b73ffffffffffffffffffffffffffffffffffffffff161461075a576040517f02feec6b00000000000000000000000000000000000000000000000000000000815260040160405180910390fd5b8160048190555060019050919050565b5f5f5f9054906101000a900473ffffffffffffffffffffffffffffffffffffffff16905090565b5f60015f9054906101000a900473ffffffffffffffffffffffffffffffffffffffff1673ffffffffffffffffffffffffffffffffffffffff166107d2610ccc565b73ffffffffffffffffffffffffffffffffffffffff161461081f576040517f02feec6b00000000000000000000000000000000000000000000000000000000815260040160405180910390fd5b8160025f6101000a81548173ffffffffffffffffffffffffffffffffffffffff021916908373ffffffffffffffffffffffffffffffffffffffff16021790555060019050919050565b5f610871611000565b905090565b6040518060400160405280600581526020017f352e302e3000000000000000000000000000000000000000000000000000000081525081565b5f600360149054906101000a900460ff16156108f7576040517f02feec6b00000000000000000000000000000000000000000000000000000000815260040160405180910390fd5b600454905090565b60015f9054906101000a900473ffffffffffffffffffffffffffffffffffffffff1673ffffffffffffffffffffffffffffffffffffffff1661093f610ccc565b73ffffffffffffffffffffffffffffffffffffffff161461098c576040517f02feec6b00000000000000000000000000000000000000000000000000000000815260040160405180910390fd5b6001600360146101000a81548160ff021916908315150217905550565b5f6109b2611053565b90505f815f0160089054906101000a900460ff161590505f825f015f9054906101000a900467ffffffffffffffff1690505f5f8267ffffffffffffffff161480156109fa5750825b90505f60018367ffffffffffffffff16148015610a2d57505f3073ffffffffffffffffffffffffffffffffffffffff163b145b905081158015610a3b575080155b15610a72576040517ff92ee8a900000000000000000000000000000000000000000000000000000000815260040160405180910390fd5b6001855f015f6101000a81548167ffffffffffffffff021916908367ffffffffffffffff1602179055508315610abf576001855f0160086101000a81548160ff0219169083151502179055505b885f5f6101000a81548173ffffffffffffffffffffffffffffffffffffffff021916908373ffffffffffffffffffffffffffffffffffffffff1602179055508760015f6101000a81548173ffffffffffffffffffffffffffffffffffffffff021916908373ffffffffffffffffffffffffffffffffffffffff1602179055508660025f6101000a81548173ffffffffffffffffffffffffffffffffffffffff021916908373ffffffffffffffffffffffffffffffffffffffff1602179055508560035f6101000a81548173ffffffffffffffffffffffffffffffffffffffff021916908373ffffffffffffffffffffffffffffffffffffffff1602179055508315610c18575f855f0160086101000a81548160ff0219169083151502179055507fc7f505b2f371ae2175ee4913f4499e1f2633a7b5936321eed1cdaeb6115181d26001604051610c0f9190611a0e565b60405180910390a15b505050505050505050565b60015f9054906101000a900473ffffffffffffffffffffffffffffffffffffffff1673ffffffffffffffffffffffffffffffffffffffff16610c63610ccc565b73ffffffffffffffffffffffffffffffffffffffff1614610cb0576040517f02feec6b00000000000000000000000000000000000000000000000000000000815260040160405180910390fd5b5f600360146101000a81548160ff021916908315150217905550565b5f33905090565b7f000000000000000000000000000000000000000000000000000000000000000073ffffffffffffffffffffffffffffffffffffffff163073ffffffffffffffffffffffffffffffffffffffff161480610d8057507f000000000000000000000000000000000000000000000000000000000000000073ffffffffffffffffffffffffffffffffffffffff16610d67611000565b73ffffffffffffffffffffffffffffffffffffffff1614155b15610db7576040517fe07c8dba00000000000000000000000000000000000000000000000000000000815260040160405180910390fd5b565b60015f9054906101000a900473ffffffffffffffffffffffffffffffffffffffff1673ffffffffffffffffffffffffffffffffffffffff16610df9610ccc565b73ffffffffffffffffffffffffffffffffffffffff1614610e46576040517f02feec6b00000000000000000000000000000000000000000000000000000000815260040160405180910390fd5b50565b8173ffffffffffffffffffffffffffffffffffffffff166352d1902d6040518163ffffffff1660e01b8152600401602060405180830381865afa925050508015610eb157506040513d601f19601f82011682018060405250810190610eae9190611a51565b60015b610ef257816040517f4c9c8ce3000000000000000000000000000000000000000000000000000000008152600401610ee991906117cc565b60405180910390fd5b7f360894a13ba1a3210667c828492db98dca3e2076cc3735a920a3ca505d382bbc5f1b8114610f5857806040517faa1d49a4000000000000000000000000000000000000000000000000000000008152600401610f4f91906116e5565b60405180910390fd5b610f628383611066565b505050565b7f000000000000000000000000000000000000000000000000000000000000000073ffffffffffffffffffffffffffffffffffffffff163073ffffffffffffffffffffffffffffffffffffffff1614610fec576040517fe07c8dba00000000000000000000000000000000000000000000000000000000815260040160405180910390fd5b565b5f610ff9825f6110d8565b9050919050565b5f61102c7f360894a13ba1a3210667c828492db98dca3e2076cc3735a920a3ca505d382bbc5f1b6111cd565b5f015f9054906101000a900473ffffffffffffffffffffffffffffffffffffffff16905090565b5f5f61105d6111d6565b90508091505090565b61106f826111ff565b8173ffffffffffffffffffffffffffffffffffffffff167fbc7cd75a20ee27fd9adebab32041f755214dbc6bffa90cc0225b39da2e5c2d3b60405160405180910390a25f815111156110cb576110c582826112c8565b506110d4565b6110d36113b9565b5b5050565b5f814710156111205747826040517fcf479181000000000000000000000000000000000000000000000000000000008152600401611117929190611a7c565b60405180910390fd5b763d602d80600a3d3981f3363d3d373d3d3d363d730000008360601b60e81c175f526e5af43d82803e903d91602b57fd5bf38360781b176020526037600983f090505f73ffffffffffffffffffffffffffffffffffffffff168173ffffffffffffffffffffffffffffffffffffffff16036111c7576040517fb06ebf3d00000000000000000000000000000000000000000000000000000000815260040160405180910390fd5b92915050565b5f819050919050565b5f7ff0c57e16840df040f15088dc2f81fe391c3923bec73e23a9662efc9c229c6a005f1b905090565b5f8173ffffffffffffffffffffffffffffffffffffffff163b0361125a57806040517f4c9c8ce300000000000000000000000000000000000000000000000000000000815260040161125191906117cc565b60405180910390fd5b806112867f360894a13ba1a3210667c828492db98dca3e2076cc3735a920a3ca505d382bbc5f1b6111cd565b5f015f6101000a81548173ffffffffffffffffffffffffffffffffffffffff021916908373ffffffffffffffffffffffffffffffffffffffff16021790555050565b60605f6112d584846113f5565b905080801561130b57505f6112e8611409565b118061130a57505f8473ffffffffffffffffffffffffffffffffffffffff163b115b5b1561132057611318611410565b9150506113b3565b801561136357836040517f9996b31500000000000000000000000000000000000000000000000000000000815260040161135a91906117cc565b60405180910390fd5b5f61136c611409565b111561137f5761137a61142d565b6113b1565b6040517fd6bda27500000000000000000000000000000000000000000000000000000000815260040160405180910390fd5b505b92915050565b5f3411156113f3576040517fb398979f00000000000000000000000000000000000000000000000000000000815260040160405180910390fd5b565b5f5f5f835160208501865af4905092915050565b5f3d905090565b606060405190503d81523d5f602083013e3d602001810160405290565b6040513d5f823e3d81fd5b5f604051905090565b5f5ffd5b5f5ffd5b5f73ffffffffffffffffffffffffffffffffffffffff82169050919050565b5f61147282611449565b9050919050565b61148281611468565b811461148c575f5ffd5b50565b5f8135905061149d81611479565b92915050565b5f602082840312156114b8576114b7611441565b5b5f6114c58482850161148f565b91505092915050565b5f8115159050919050565b6114e2816114ce565b82525050565b5f6020820190506114fb5f8301846114d9565b92915050565b61150a81611468565b82525050565b5f6040820190506115235f830185611501565b6115306020830184611501565b9392505050565b5f5ffd5b5f5ffd5b5f601f19601f8301169050919050565b7f4e487b71000000000000000000000000000000000000000000000000000000005f52604160045260245ffd5b6115858261153f565b810181811067ffffffffffffffff821117156115a4576115a361154f565b5b80604052505050565b5f6115b6611438565b90506115c2828261157c565b919050565b5f67ffffffffffffffff8211156115e1576115e061154f565b5b6115ea8261153f565b9050602081019050919050565b828183375f83830152505050565b5f611617611612846115c7565b6115ad565b9050828152602081018484840111156116335761163261153b565b5b61163e8482856115f7565b509392505050565b5f82601f83011261165a57611659611537565b5b813561166a848260208601611605565b91505092915050565b5f5f6040838503121561168957611688611441565b5b5f6116968582860161148f565b925050602083013567ffffffffffffffff8111156116b7576116b6611445565b5b6116c385828601611646565b9150509250929050565b5f819050919050565b6116df816116cd565b82525050565b5f6020820190506116f85f8301846116d6565b92915050565b5f5ffd5b5f5ffd5b5f5f83601f84011261171b5761171a611537565b5b8235905067ffffffffffffffff811115611738576117376116fe565b5b60208301915083600182028301111561175457611753611702565b5b9250929050565b5f5f5f5f6060858703121561177357611772611441565b5b5f6117808782880161148f565b94505060206117918782880161148f565b935050604085013567ffffffffffffffff8111156117b2576117b1611445565b5b6117be87828801611706565b925092505092959194509250565b5f6020820190506117df5f830184611501565b92915050565b5f819050919050565b6117f7816117e5565b8114611801575f5ffd5b50565b5f81359050611812816117ee565b92915050565b5f6020828403121561182d5761182c611441565b5b5f61183a84828501611804565b91505092915050565b5f81519050919050565b5f82825260208201905092915050565b8281835e5f83830152505050565b5f61187582611843565b61187f818561184d565b935061188f81856020860161185d565b6118988161153f565b840191505092915050565b5f6020820190508181035f8301526118bb818461186b565b905092915050565b6118cc816117e5565b82525050565b5f6020820190506118e55f8301846118c3565b92915050565b5f5f5f5f6080858703121561190357611902611441565b5b5f6119108782880161148f565b94505060206119218782880161148f565b93505060406119328782880161148f565b92505060606119438782880161148f565b91505092959194509250565b5f61195a838561184d565b93506119678385846115f7565b6119708361153f565b840190509392505050565b5f60608201905061198e5f830187611501565b61199b6020830186611501565b81810360408301526119ae81848661194f565b905095945050505050565b5f819050919050565b5f67ffffffffffffffff82169050919050565b5f819050919050565b5f6119f86119f36119ee846119b9565b6119d5565b6119c2565b9050919050565b611a08816119de565b82525050565b5f602082019050611a215f8301846119ff565b92915050565b611a30816116cd565b8114611a3a575f5ffd5b50565b5f81519050611a4b81611a27565b92915050565b5f60208284031215611a6657611a65611441565b5b5f611a7384828501611a3d565b91505092915050565b5f604082019050611a8f5f8301856118c3565b611a9c60208301846118c3565b939250505056fea264697066735822122062e70186958a9fc7968d8792dfdb50cdc6a8b973cf59c0d32caebe3dcefd0ee764736f6c634300081e0033",
        "nonce": "0x18a",
        "chainId": "0x14a34"
      },
      "additionalContracts": [],
      "isFixedGasLimit": false
    },
    {
      "hash": "0x75095203220646eb7581760145bf9759e2ad7555553baf4f34ff94b1c2973ebf",
      "transactionType": "CALL",
      "contractName": null,
      "contractAddress": "0x361a059ae5ef356f70dd535dc3f5a7db59350ec6",
      "function": "cancelUpgrade(address)",
      "arguments": [
        "0x7B56bc1e4eFCAED94882F69003087Eef93aC4c41"
      ],
      "transaction": {
        "from": "0x708657da3e4effa7334779c9a1e759dc38a5bf94",
        "to": "0x361a059ae5ef356f70dd535dc3f5a7db59350ec6",
        "gas": "0xfe62",
        "value": "0x0",
        "input": "0xc44fb8ec0000000000000000000000007b56bc1e4efcaed94882f69003087eef93ac4c41",
        "nonce": "0x18b",
        "chainId": "0x14a34"
      },
      "additionalContracts": [],
      "isFixedGasLimit": false
    },
    {
      "hash": "0x1581e24475fd45d51b64e57402919a49db609fb7282c3f4c7768f20710eb6f7f",
      "transactionType": "CALL",
      "contractName": null,
      "contractAddress": "0x361a059ae5ef356f70dd535dc3f5a7db59350ec6",
      "function": "proposeUpgrade(address,address,bool)",
      "arguments": [
        "0x7B56bc1e4eFCAED94882F69003087Eef93aC4c41",
        "0x7D45eEc6b9cf9032e068060425AA97e5D9cb8b29",
        "false"
      ],
      "transaction": {
        "from": "0x708657da3e4effa7334779c9a1e759dc38a5bf94",
        "to": "0x361a059ae5ef356f70dd535dc3f5a7db59350ec6",
        "gas": "0x2a9b7",
        "value": "0x0",
        "input": "0xf7e361ab0000000000000000000000007b56bc1e4efcaed94882f69003087eef93ac4c410000000000000000000000007d45eec6b9cf9032e068060425aa97e5d9cb8b290000000000000000000000000000000000000000000000000000000000000000",
        "nonce": "0x18c",
        "chainId": "0x14a34"
      },
      "additionalContracts": [],
      "isFixedGasLimit": false
    },
    {
      "hash": "0x2edf431e9dbbe9ea331dbdb16a1ef00bf5700a57a532ebbf306520320d52778a",
      "transactionType": "CALL",
      "contractName": null,
      "contractAddress": "0x361a059ae5ef356f70dd535dc3f5a7db59350ec6",
      "function": "validateUpgrade(address)",
      "arguments": [
        "0x7D45eEc6b9cf9032e068060425AA97e5D9cb8b29"
      ],
      "transaction": {
        "from": "0x708657da3e4effa7334779c9a1e759dc38a5bf94",
        "to": "0x361a059ae5ef356f70dd535dc3f5a7db59350ec6",
        "gas": "0x22342",
        "value": "0x0",
        "input": "0x105250410000000000000000000000007d45eec6b9cf9032e068060425aa97e5d9cb8b29",
        "nonce": "0x18d",
        "chainId": "0x14a34"
      },
      "additionalContracts": [],
      "isFixedGasLimit": false
    },
    {
      "hash": "0x4b32c56b1bca414223e94e0b6d9ae3bf0b1e02511e069aa7b70f3985c2c113bb",
      "transactionType": "CALL",
      "contractName": null,
      "contractAddress": "0x361a059ae5ef356f70dd535dc3f5a7db59350ec6",
      "function": "executeUpgrade(address)",
      "arguments": [
        "0x7D45eEc6b9cf9032e068060425AA97e5D9cb8b29"
      ],
      "transaction": {
        "from": "0x708657da3e4effa7334779c9a1e759dc38a5bf94",
        "to": "0x361a059ae5ef356f70dd535dc3f5a7db59350ec6",
        "gas": "0x1678f",
        "value": "0x0",
        "input": "0x394d4bf30000000000000000000000007d45eec6b9cf9032e068060425aa97e5d9cb8b29",
        "nonce": "0x18e",
        "chainId": "0x14a34"
      },
      "additionalContracts": [],
      "isFixedGasLimit": false
    },
    {
      "hash": "0xd84540acfc745d4dde1cfd5f00de777f1b19e65a185eeb4d1bdd4a6bf0615a50",
      "transactionType": "CALL",
      "contractName": null,
      "contractAddress": "0x7b56bc1e4efcaed94882f69003087eef93ac4c41",
      "function": "updateNGNs(address)",
      "arguments": [
        "0xae7597fa3414Bc94254fA7777663882355ED6Cb7"
      ],
      "transaction": {
        "from": "0x708657da3e4effa7334779c9a1e759dc38a5bf94",
        "to": "0x7b56bc1e4efcaed94882f69003087eef93ac4c41",
        "gas": "0xad8a",
        "value": "0x0",
        "input": "0x732d87c1000000000000000000000000ae7597fa3414bc94254fa7777663882355ed6cb7",
        "nonce": "0x18f",
        "chainId": "0x14a34"
      },
      "additionalContracts": [],
      "isFixedGasLimit": false
    }
  ],
  "receipts": [
    {
      "status": "0x1",
      "cumulativeGasUsed": "0x43be98",
      "logs": [
        {
          "address": "0x7d45eec6b9cf9032e068060425aa97e5d9cb8b29",
          "topics": [
            "0xc7f505b2f371ae2175ee4913f4499e1f2633a7b5936321eed1cdaeb6115181d2"
          ],
          "data": "0x000000000000000000000000000000000000000000000000ffffffffffffffff",
          "blockHash": "0x0000000000000000000000000000000000000000000000000000000000000000",
          "blockNumber": "0x26d0713",
          "blockTimestamp": "0x69ed6d06",
          "transactionHash": "0xd84540acfc745d4dde1cfd5f00de777f1b19e65a185eeb4d1bdd4a6bf0615a50",
          "transactionIndex": "0xd",
          "logIndex": "0x6e",
          "removed": false
        }
      ],
      "logsBloom": "0x00000000000000000000000000000000000000000000000000000000000000000000000000000000000000000040000000000000000000000000000400000000000000000000000000000000000000000000000000000000000000000000000000000000000000000000000000000000000000000000000000000000000000001000000000000000000800000000000000000000000080000000000000000000000000000000000000000000000000000000000000000000000000000000000000000000000000000000000000000000000000000004000000000000000000000000000000000000000000000000000000000000000000000000000000000000",
      "type": "0x2",
      "transactionHash": "0xd84540acfc745d4dde1cfd5f00de777f1b19e65a185eeb4d1bdd4a6bf0615a50",
      "transactionIndex": "0xd",
      "blockHash": "0x0000000000000000000000000000000000000000000000000000000000000000",
      "blockNumber": "0x26d0713",
      "gasUsed": "0x17d534",
      "effectiveGasPrice": "0x5b8d80",
      "blobGasUsed": "0x6d15c",
      "from": "0x708657da3e4effa7334779c9a1e759dc38a5bf94",
      "to": null,
      "contractAddress": "0x7d45eec6b9cf9032e068060425aa97e5d9cb8b29",
      "daFootprintGasScalar": "0x94",
      "l1BaseFeeScalar": "0x44d",
      "l1BlobBaseFee": "0xc635f8",
      "l1BlobBaseFeeScalar": "0xa118b",
      "l1Fee": "0x19c073c53",
      "l1GasPrice": "0xd9da63e",
      "l1GasUsed": "0xbcb0"
    },
    {
      "status": "0x1",
      "cumulativeGasUsed": "0x4476c4",
      "logs": [
        {
          "address": "0x361a059ae5ef356f70dd535dc3f5a7db59350ec6",
          "topics": [
            "0x3198dc80249fcfedbd0d06e1ff49a7695a51b006592328ce0b127cdeab77e936",
            "0x0000000000000000000000007b56bc1e4efcaed94882f69003087eef93ac4c41"
          ],
          "data": "0x",
          "blockHash": "0x0000000000000000000000000000000000000000000000000000000000000000",
          "blockNumber": "0x26d0713",
          "blockTimestamp": "0x69ed6d06",
          "transactionHash": "0x2edf431e9dbbe9ea331dbdb16a1ef00bf5700a57a532ebbf306520320d52778a",
          "transactionIndex": "0xe",
          "logIndex": "0x6f",
          "removed": false
        }
      ],
      "logsBloom": "0x00000000000000000000000000000000000000000000000000000000000000000000000000000000000000000000000000000000000000000000000000000000000000000001000000000000000000000000000000000000000000000000000000000000000000000000000000000000000000000000000000000000000000000000000000000040000000000000000080000000000000000000040000404000000000000000000000000000000000000000000000000000000000000008000000000000000000000000000000000000000000000000000000000000000000000000000000000000000000000080000080000000000000000000000000000000",
      "type": "0x2",
      "transactionHash": "0x2edf431e9dbbe9ea331dbdb16a1ef00bf5700a57a532ebbf306520320d52778a",
      "transactionIndex": "0xe",
      "blockHash": "0x0000000000000000000000000000000000000000000000000000000000000000",
      "blockNumber": "0x26d0713",
      "gasUsed": "0xb82c",
      "effectiveGasPrice": "0x5b8d80",
      "blobGasUsed": "0x39d0",
      "from": "0x708657da3e4effa7334779c9a1e759dc38a5bf94",
      "to": "0x361a059ae5ef356f70dd535dc3f5a7db59350ec6",
      "contractAddress": null,
      "daFootprintGasScalar": "0x94",
      "l1BaseFeeScalar": "0x44d",
      "l1BlobBaseFee": "0xc635f8",
      "l1BlobBaseFeeScalar": "0xa118b",
      "l1Fee": "0x19c073c53",
      "l1GasPrice": "0xd9da63e",
      "l1GasUsed": "0x640"
    },
    {
      "status": "0x1",
      "cumulativeGasUsed": "0x466452",
      "logs": [
        {
          "address": "0x361a059ae5ef356f70dd535dc3f5a7db59350ec6",
          "topics": [
            "0xea80d7bcdb5b960a75976c0e94d2d4b2077378cfea983c73b49501b8613da224",
            "0x0000000000000000000000007d45eec6b9cf9032e068060425aa97e5d9cb8b29"
          ],
          "data": "0x0000000000000000000000000000000000000000000000000000000000000001",
          "blockHash": "0x0000000000000000000000000000000000000000000000000000000000000000",
          "blockNumber": "0x26d0713",
          "blockTimestamp": "0x69ed6d06",
          "transactionHash": "0x4b32c56b1bca414223e94e0b6d9ae3bf0b1e02511e069aa7b70f3985c2c113bb",
          "transactionIndex": "0xf",
          "logIndex": "0x70",
          "removed": false
        }
      ],
      "logsBloom": "0x00000000000000000000000000000000000000000000000000000000000000000000000000000000000000000000000000000000000000000000000000000000000000000000000000000000000000000000000000000000000000000000000000000000000000000000000000000000000000000000000000000000000000000000000000000008000000000000000080000000000000080000200080000000000000000000000000000000000000000000000000800000000000000000000010000000000000000000000000000000000000000000000000000000000000000000000000000000000000000080000080000000000000000000000000000000",
      "type": "0x2",
      "transactionHash": "0x4b32c56b1bca414223e94e0b6d9ae3bf0b1e02511e069aa7b70f3985c2c113bb",
      "transactionIndex": "0xf",
      "blockHash": "0x0000000000000000000000000000000000000000000000000000000000000000",
      "blockNumber": "0x26d0713",
      "gasUsed": "0x1ed8e",
      "effectiveGasPrice": "0x5b8d80",
      "blobGasUsed": "0x3d48",
      "from": "0x708657da3e4effa7334779c9a1e759dc38a5bf94",
      "to": "0x361a059ae5ef356f70dd535dc3f5a7db59350ec6",
      "contractAddress": null,
      "daFootprintGasScalar": "0x94",
      "l1BaseFeeScalar": "0x44d",
      "l1BlobBaseFee": "0xc635f8",
      "l1BlobBaseFeeScalar": "0xa118b",
      "l1Fee": "0x19c073c53",
      "l1GasPrice": "0xd9da63e",
      "l1GasUsed": "0x6a4"
    },
    {
      "status": "0x1",
      "cumulativeGasUsed": "0x47f087",
      "logs": [
        {
          "address": "0x361a059ae5ef356f70dd535dc3f5a7db59350ec6",
          "topics": [
            "0x80b88ef0ac870a88c0073c3abc8346b2814815f5ab11efd88dcbd6be31b5919d",
            "0x0000000000000000000000007d45eec6b9cf9032e068060425aa97e5d9cb8b29"
          ],
          "data": "0x00000000000000000000000000000000000000000000000000000000000000010000000000000000000000000000000000000000000000000000000000000000",
          "blockHash": "0x0000000000000000000000000000000000000000000000000000000000000000",
          "blockNumber": "0x26d0713",
          "blockTimestamp": "0x69ed6d06",
          "transactionHash": "0x802ba14f9edc941e56b6a4553b93e6ff3923c80caa82f4131aebf73b1b680401",
          "transactionIndex": "0x10",
          "logIndex": "0x71",
          "removed": false
        }
      ],
      "logsBloom": "0x00000000000000000000000000000000000000000000000000000000000000000000000000000000000000000000000000000000000000000000000000000000000000000000000000000000000000000000000000000000000000000000000000000000000000000000000000000000000000000000000000000000000000000000000000000008000000002000000080000000000000000000200000000000000008000000000000000000000000000000000000000000000000000000000010000000000000000000000000000000000000000000000000000000000000000000000000000000000000000080000080000000000000000100000000000000",
      "type": "0x2",
      "transactionHash": "0x802ba14f9edc941e56b6a4553b93e6ff3923c80caa82f4131aebf73b1b680401",
      "transactionIndex": "0x10",
      "blockHash": "0x0000000000000000000000000000000000000000000000000000000000000000",
      "blockNumber": "0x26d0713",
      "gasUsed": "0x18c35",
      "effectiveGasPrice": "0x5b8d80",
      "blobGasUsed": "0x39d0",
      "from": "0x708657da3e4effa7334779c9a1e759dc38a5bf94",
      "to": "0x361a059ae5ef356f70dd535dc3f5a7db59350ec6",
      "contractAddress": null,
      "daFootprintGasScalar": "0x94",
      "l1BaseFeeScalar": "0x44d",
      "l1BlobBaseFee": "0xc635f8",
      "l1BlobBaseFeeScalar": "0xa118b",
      "l1Fee": "0x19c073c53",
      "l1GasPrice": "0xd9da63e",
      "l1GasUsed": "0x640"
    },
    {
      "status": "0x1",
      "cumulativeGasUsed": "0x48e662",
      "logs": [
        {
          "address": "0x361a059ae5ef356f70dd535dc3f5a7db59350ec6",
          "topics": [
            "0xfd5a9ae7c73c11fde86dd61704e937a04c99e7eef668050f685aabc5d8a6b2e4",
            "0x0000000000000000000000007d45eec6b9cf9032e068060425aa97e5d9cb8b29"
          ],
          "data": "0x",
          "blockHash": "0x0000000000000000000000000000000000000000000000000000000000000000",
          "blockNumber": "0x26d0713",
          "blockTimestamp": "0x69ed6d06",
          "transactionHash": "0x75095203220646eb7581760145bf9759e2ad7555553baf4f34ff94b1c2973ebf",
          "transactionIndex": "0x11",
          "logIndex": "0x72",
          "removed": false
        },
        {
          "address": "0x7b56bc1e4efcaed94882f69003087eef93ac4c41",
          "topics": [
            "0xbc7cd75a20ee27fd9adebab32041f755214dbc6bffa90cc0225b39da2e5c2d3b",
            "0x0000000000000000000000007d45eec6b9cf9032e068060425aa97e5d9cb8b29"
          ],
          "data": "0x",
          "blockHash": "0x0000000000000000000000000000000000000000000000000000000000000000",
          "blockNumber": "0x26d0713",
          "blockTimestamp": "0x69ed6d06",
          "transactionHash": "0x75095203220646eb7581760145bf9759e2ad7555553baf4f34ff94b1c2973ebf",
          "transactionIndex": "0x11",
          "logIndex": "0x73",
          "removed": false
        }
      ],
      "logsBloom": "0x00000400000000000000000000000000400000000000000000000000000000000000000000000000000000000000001000040000000000000000000000000000000000000000000000000000000002000000000000000000000000000000000000000000000000000000000000000000000000000000000000000000000000000000000000000008000000000000000080000000000000000000200000000000000000000000000000000000000000000000000000000000000000000000000010000020000000000000000000000000000000000000000000000000000000400000000000000000000000000080000080001010000000000000000000000000",
      "type": "0x2",
      "transactionHash": "0x75095203220646eb7581760145bf9759e2ad7555553baf4f34ff94b1c2973ebf",
      "transactionIndex": "0x11",
      "blockHash": "0x0000000000000000000000000000000000000000000000000000000000000000",
      "blockNumber": "0x26d0713",
      "gasUsed": "0xf5db",
      "effectiveGasPrice": "0x5b8d80",
      "blobGasUsed": "0x39d0",
      "from": "0x708657da3e4effa7334779c9a1e759dc38a5bf94",
      "to": "0x361a059ae5ef356f70dd535dc3f5a7db59350ec6",
      "contractAddress": null,
      "daFootprintGasScalar": "0x94",
      "l1BaseFeeScalar": "0x44d",
      "l1BlobBaseFee": "0xc635f8",
      "l1BlobBaseFeeScalar": "0xa118b",
      "l1Fee": "0x19c073c53",
      "l1GasPrice": "0xd9da63e",
      "l1GasUsed": "0x640"
    },
    {
      "status": "0x1",
      "cumulativeGasUsed": "0x496406",
      "logs": [],
      "logsBloom": "0x00000000000000000000000000000000000000000000000000000000000000000000000000000000000000000000000000000000000000000000000000000000000000000000000000000000000000000000000000000000000000000000000000000000000000000000000000000000000000000000000000000000000000000000000000000000000000000000000000000000000000000000000000000000000000000000000000000000000000000000000000000000000000000000000000000000000000000000000000000000000000000000000000000000000000000000000000000000000000000000000000000000000000000000000000000000",
      "type": "0x2",
      "transactionHash": "0x1581e24475fd45d51b64e57402919a49db609fb7282c3f4c7768f20710eb6f7f",
      "transactionIndex": "0x12",
      "blockHash": "0x0000000000000000000000000000000000000000000000000000000000000000",
      "blockNumber": "0x26d0713",
      "gasUsed": "0x7da4",
      "effectiveGasPrice": "0x5b8d80",
      "blobGasUsed": "0x39d0",
      "from": "0x708657da3e4effa7334779c9a1e759dc38a5bf94",
      "to": "0x7b56bc1e4efcaed94882f69003087eef93ac4c41",
      "contractAddress": null,
      "daFootprintGasScalar": "0x94",
      "l1BaseFeeScalar": "0x44d",
      "l1BlobBaseFee": "0xc635f8",
      "l1BlobBaseFeeScalar": "0xa118b",
      "l1Fee": "0x19c073c53",
      "l1GasPrice": "0xd9da63e",
      "l1GasUsed": "0x640"
    }
  ],
  "libraries": [],
  "pending": [],
  "returns": {},
  "timestamp": 1777167642526,
  "chain": 84532,
  "commit": "14b850d"
}