{
  "transactions": [
    {
      "hash": "0x2b521ebf4526e92e92aaeef5346a2321ee09cdacf4546bda8dd07c6d211341ea",
      "transactionType": "CALL",
      "contractName": null,
      "contractAddress": "0x9d22b9b449d59ba32435d2155ff184b922205db1",
      "function": "proposeValidatorUpdate(address,bool)",
      "arguments": [
        "0xF7cB5cd65D10A435A13DC264BaDcc4bd01ef0C43",
        "true"
      ],
      "transaction": {
        "from": "0x708657da3e4effa7334779c9a1e759dc38a5bf94",
        "to": "0x9d22b9b449d59ba32435d2155ff184b922205db1",
        "gas": "0x22e85",
        "value": "0x0",
        "input": "0x587605e9000000000000000000000000f7cb5cd65d10a435a13dc264badcc4bd01ef0c430000000000000000000000000000000000000000000000000000000000000001",
        "nonce": "0x157",
        "chainId": "0x14a34"
      },
      "additionalContracts": [],
      "isFixedGasLimit": false
    },
    {
      "hash": "0x93395d2e6824b70c382974a62654b5fd38642f3e4470252da4bff4b0e1dcb14f",
      "transactionType": "CALL",
      "contractName": null,
      "contractAddress": "0x9d22b9b449d59ba32435d2155ff184b922205db1",
      "function": "validateValidatorUpdate(address)",
      "arguments": [
        "0xF7cB5cd65D10A435A13DC264BaDcc4bd01ef0C43"
      ],
      "transaction": {
        "from": "0x708657da3e4effa7334779c9a1e759dc38a5bf94",
        "to": "0x9d22b9b449d59ba32435d2155ff184b922205db1",
        "gas": "0x2309a",
        "value": "0x0",
        "input": "0x8ea1865e000000000000000000000000f7cb5cd65d10a435a13dc264badcc4bd01ef0c43",
        "nonce": "0x158",
        "chainId": "0x14a34"
      },
      "additionalContracts": [],
      "isFixedGasLimit": false
    },
    {
      "hash": "0x9895d1b38323b55f2438a4183f58b41c0c1f1031dbd5c8a5ebb2bf030e1ef066",
      "transactionType": "CALL",
      "contractName": null,
      "contractAddress": "0x9d22b9b449d59ba32435d2155ff184b922205db1",
      "function": "executeValidatorUpdate(address)",
      "arguments": [
        "0xF7cB5cd65D10A435A13DC264BaDcc4bd01ef0C43"
      ],
      "transaction": {
        "from": "0x708657da3e4effa7334779c9a1e759dc38a5bf94",
        "to": "0x9d22b9b449d59ba32435d2155ff184b922205db1",
        "gas": "0x17c82",
        "value": "0x0",
        "input": "0x3d027cb0000000000000000000000000f7cb5cd65d10a435a13dc264badcc4bd01ef0c43",
        "nonce": "0x159",
        "chainId": "0x14a34"
      },
      "additionalContracts": [],
      "isFixedGasLimit": false
    }
  ],
  "receipts": [
    {
      "status": "0x1",
      "cumulativeGasUsed": "0x1a28f7",
      "logs": [
        {
          "address": "0x9d22b9b449d59ba32435d2155ff184b922205db1",
          "topics": [
            "0xf122f274276033cf46a71048adad4a34b6d2facd363320eeca1a7ed6d2ee7bb1",
            "0x000000000000000000000000f7cb5cd65d10a435a13dc264badcc4bd01ef0c43"
          ],
          "data": "0x0000000000000000000000000000000000000000000000000000000000000001",
          "blockHash": "0x0000000000000000000000000000000000000000000000000000000000000000",
          "blockNumber": "0x26c2052",
          "blockTimestamp": "0x69eb9f84",
          "transactionHash": "0x2b521ebf4526e92e92aaeef5346a2321ee09cdacf4546bda8dd07c6d211341ea",
          "transactionIndex": "0xa",
          "logIndex": "0x2b",
          "removed": false
        }
      ],
      "logsBloom": "0x00000000000000000000000000000080000000000000000000000000000000000000000000000000000000000000000000000000000000000000000000000000000000000000000000000000000000000000000000000000000000000000000000000000000000000000000000000000000000000000000000000000000000000000000000000000000000000000002000008000000000000000000000000000000000000000000000000200000000000000000000000000800000000000000000000000000000200000000000000000000000000000000000000100000040000000000000000000000000000000000000000008000000000000000000000000",
      "type": "0x2",
      "transactionHash": "0x2b521ebf4526e92e92aaeef5346a2321ee09cdacf4546bda8dd07c6d211341ea",
      "transactionIndex": "0xa",
      "blockHash": "0x0000000000000000000000000000000000000000000000000000000000000000",
      "blockNumber": "0x26c2052",
      "gasUsed": "0x1945d",
      "effectiveGasPrice": "0x5b8d80",
      "blobGasUsed": "0x39d0",
      "from": "0x708657da3e4effa7334779c9a1e759dc38a5bf94",
      "to": "0x9d22b9b449d59ba32435d2155ff184b922205db1",
      "contractAddress": null,
      "daFootprintGasScalar": "0x94",
      "l1BaseFeeScalar": "0x44d",
      "l1BlobBaseFee": "0x13717d",
      "l1BlobBaseFeeScalar": "0xa118b",
      "l1Fee": "0x784a1fc",
      "l1GasPrice": "0x16c4024",
      "l1GasUsed": "0x640"
    },
    {
      "status": "0x1",
      "cumulativeGasUsed": "0x1bbed6",
      "logs": [
        {
          "address": "0x9d22b9b449d59ba32435d2155ff184b922205db1",
          "topics": [
            "0xea15854380d5cd735f80fcf00ac275602d4b858845d77a40964e36df40f6961a",
            "0x000000000000000000000000708657da3e4effa7334779c9a1e759dc38a5bf94"
          ],
          "data": "0x000000000000000000000000000000000000000000000000000000000000000100000000000000000000000000000000000000000000000000000000000000010000000000000000000000000000000000000000000000000000000000000000",
          "blockHash": "0x0000000000000000000000000000000000000000000000000000000000000000",
          "blockNumber": "0x26c2052",
          "blockTimestamp": "0x69eb9f84",
          "transactionHash": "0x9895d1b38323b55f2438a4183f58b41c0c1f1031dbd5c8a5ebb2bf030e1ef066",
          "transactionIndex": "0xb",
          "logIndex": "0x2c",
          "removed": false
        }
      ],
      "logsBloom": "0x00000000000000000000000004000000000000000000000000000000000000000000000000000000000000000000000000000000000000000000000000000000000000000000000000000000000000000000000000000000000000000000000000000000000000000000000000000000000000080000000000000000000000040000000000000000000000000000002000000000000000000000000000008001000000000000000000000280000000000000000000000000000000000000000000000000000000000000000000000000000000000000000000000000000000000000000000000000000000000000000000000008000000000000000000000000",
      "type": "0x2",
      "transactionHash": "0x9895d1b38323b55f2438a4183f58b41c0c1f1031dbd5c8a5ebb2bf030e1ef066",
      "transactionIndex": "0xb",
      "blockHash": "0x0000000000000000000000000000000000000000000000000000000000000000",
      "blockNumber": "0x26c2052",
      "gasUsed": "0x195df",
      "effectiveGasPrice": "0x5b8d80",
      "blobGasUsed": "0x39d0",
      "from": "0x708657da3e4effa7334779c9a1e759dc38a5bf94",
      "to": "0x9d22b9b449d59ba32435d2155ff184b922205db1",
      "contractAddress": null,
      "daFootprintGasScalar": "0x94",
      "l1BaseFeeScalar": "0x44d",
      "l1BlobBaseFee": "0x13717d",
      "l1BlobBaseFeeScalar": "0xa118b",
      "l1Fee": "0x784a1fc",
      "l1GasPrice": "0x16c4024",
      "l1GasUsed": "0x640"
    },
    {
      "status": "0x1",
      "cumulativeGasUsed": "0x1cd252",
      "logs": [
        {
          "address": "0x9d22b9b449d59ba32435d2155ff184b922205db1",
          "topics": [
            "0x763b63b30e91c843bb39e4379603697003d3b7c1f192619cd782fa33bdc44396",
            "0x000000000000000000000000f7cb5cd65d10a435a13dc264badcc4bd01ef0c43"
          ],
          "data": "0x0000000000000000000000000000000000000000000000000000000000000001",
          "blockHash": "0x0000000000000000000000000000000000000000000000000000000000000000",
          "blockNumber": "0x26c2052",
          "blockTimestamp": "0x69eb9f84",
          "transactionHash": "0x93395d2e6824b70c382974a62654b5fd38642f3e4470252da4bff4b0e1dcb14f",
          "transactionIndex": "0xc",
          "logIndex": "0x2d",
          "removed": false
        }
      ],
      "logsBloom": "0x00000000000000000000000000000000000000000000000000000000000000000000000000000000000000000000000000000000000000000000000000000000000000000000100000000000000000000000000000000000000000000000000000000000000000000000000000000000000000000000000000000000000000000000000000000000000000000000002000008000000000000000000000000000000000000000000000000200000000000000000000000000800000000000000000200000000000000000000000000000000000000000000800000100000000000000000000000000000000000000000000000008000000000000000000000000",
      "type": "0x2",
      "transactionHash": "0x93395d2e6824b70c382974a62654b5fd38642f3e4470252da4bff4b0e1dcb14f",
      "transactionIndex": "0xc",
      "blockHash": "0x0000000000000000000000000000000000000000000000000000000000000000",
      "blockNumber": "0x26c2052",
      "gasUsed": "0x1137c",
      "effectiveGasPrice": "0x5b8d80",
      "blobGasUsed": "0x39d0",
      "from": "0x708657da3e4effa7334779c9a1e759dc38a5bf94",
      "to": "0x9d22b9b449d59ba32435d2155ff184b922205db1",
      "contractAddress": null,
      "daFootprintGasScalar": "0x94",
      "l1BaseFeeScalar": "0x44d",
      "l1BlobBaseFee": "0x13717d",
      "l1BlobBaseFeeScalar": "0xa118b",
      "l1Fee": "0x784a1fc",
      "l1GasPrice": "0x16c4024",
      "l1GasUsed": "0x640"
    }
  ],
  "libraries": [],
  "pending": [],
  "returns": {},
  "timestamp": 1777049441141,
  "chain": 84532,
  "commit": "beba8ad"
}